:100000000C94880E0C94B90E0C94B90E0C94B90E85
:100010000C94B90E0C94B90E0C94B90E0C94B90E44
:100020000C94B90E0C94B90E0C94B90E0C94B90E34
:100030000C94B90E0C94B90E0C94B90E0C94B90E24
:100040000C94B90E0C94354C0C94B90E0C94B90E5A
:100050000C94B90E0C94B90E0C94CB340C94305B08
:100060000C94B90E0C945D200C94B90E0C94B90E3E
:100070000C94B90E0C94B90E0C94B90E0C94B90EE4
:100080000C94B90E0C94B90E0C94B90E0C94B90ED4
:100090000C94B90E0C94B90E0C94B90E0C94B90EC4
:1000A0000C94B90E0C94B90E0C94B90E0C94B90EB4
:1000B0000C94B90E0C94B90E0C94B90E0C94B90EA4
:1000C0000C94B90E0C94B90E0C94B90E0C94B90E94
:1000D0000C94B90E0C94B90E0C94B90E0C94B90E84
:1000E0000C94B90EAD59B0599F59A359A959E75964
:1000F000B459B859BE59C259C659CC59D059D45916
:10010000E759DA59DE59E2594C5A515A565A605A4F
:100110006A5AE35A745A7C5A845A8E5A985AA25A86
:10012000B15ABB5AE35AC55ACF5AD95A084AD73B93
:100130003BCE016E84BCBFFDC12F3D6C74319ABDB6
:1001400056833DDA3D00C77F11BED9E4BB4C3E91DA
:100150006BAAAABE000000803F05A84CCDB2D44EC9
:10016000B93836A9020C50B9918688083CA6AAAACB
:100170002ABE000000803F004E414E494E4954596E
:10018000494E46CDCCCC3D0AD7233C17B7D1387762
:10019000CC2B329595E6241FB14F0A000020410078
:1001A00000C84200401C4620BCBE4CCA1B0E5AAEC2
:1001B000C59D74434F4D4D554E49434154494F4E93
:1001C0000044525952554E004552524F5253004925
:1001D0004E464F004543484F0047322F4733206279
:1001E000616420706172616D65746572730A0000EC
:1001F00000A0400000A0400000A04000000000253A
:1002000069730025696D20256973002569682025BB
:10021000696D20256973002569642025696820259A
:10022000696D202569730025697920256964202579
:1002300069682025696D20256973005072696E74A4
:100240002074696D653A2000D401CF01C801C10155
:10025000B3016F66660044454255473A004B494C2E
:100260004C45442E20004D3131332053006F6B003C
:1002700020573A00544845524D414C5F50524F541C
:10028000454354494F4E004155544F5245504F52EB
:10029000545F53445F53544154555300454D4552A8
:1002A00047454E43595F50415253455200434153D5
:1002B000455F4C494748545F4252494748544E4570
:1002C000535300544F47474C455F4C49474854539C
:1002D00000534F4654574152455F504F57455200C7
:1002E0004255494C445F50455243454E54004C459D
:1002F00056454C494E475F44415441005A5F505265
:100300004F4245004155544F4C4556454C005052C4
:10031000494E545F4A4F420050524F475245535343
:10032000004155544F5245504F52545F54454D5023
:1003300000564F4C554D4554524943004545505287
:100340004F4D0053455249414C5F584F4E5F584FF7
:100350004646004649524D574152455F4E414D4534
:100360003A4D61726C696E206275676669782D31ED
:100370002E312E7820284769746875622920534FE2
:10038000555243455F434F44455F55524C3A68745C
:100390007470733A2F2F6769746875622E636F6D7E
:1003A0002F4D61726C696E4669726D776172652F4F
:1003B0004D61726C696E2050524F544F434F4C5FE9
:1003C00056455253494F4E3A312E30204D41434805
:1003D000494E455F545950453A3344205072696E36
:1003E0007465722045585452554445525F434F55E9
:1003F0004E543A3120555549443A6365646532613B
:1004000032662D343161322D343734382D39623132
:10041000322D6335356336326633363766660A0009
:100420002F2F2000205400205200416363656C652B
:10043000726174696F6E3A2050002066697273743D
:100440000A005A0059005800486F6D6520000000EE
:1004500000000000000000000000546F6F20666183
:10046000722066726F6D207265666572656E636577
:1004700020706F696E740A00FFFFFF205A00205938
:1004800000580020204D61783A2000205A00205961
:1004900000580020204D696E3A20004F66660053D8
:1004A0006F667420656E6473746F70733A200020F9
:1004B000466C6F773A2000000125311D0C51FFFF7B
:1004C0002924301C0BFFFFFF27232F1B0AFFFFFFF0
:1004D000FF43FFFF040806FFFF222B1AFFFF420421
:1004E0003803FF3620643A0020693A0020703A0051
:1004F000496E76616C6964206578747275646572A2
:100500000A0043290A0061626C656420286D696EE7
:100510002074656D702000436F6C64206578747280
:10052000756465732061726520004E6F206361738E
:1005300065206C696768740A00454550524F4D202C
:1005400064697361626C65640A004163746976650D
:100550002045787472756465723A2000496E766140
:100560006C69642065787472756465720A006F6BDB
:1005700000205A3A0020593A0020583A00656E642B
:1005800073746F7073206869743A200024F4D43057
:1005900050C38E20C2A24017828B7011127A910D27
:1005A000816CD90AA861E108C75866076151430602
:1005B0001E4B5D05C145A7041A411104093D98036E
:1005C000713931034036DB0265339102D430540275
:1005D000802E1D02632CEE01752AC501B028A001F2
:1005E000102781018F2564012B244B01E022340167
:1005F000AC211F018D200D01801FFC00841EED0029
:10060000971DDF00B81CD200E61BC600201BBC00F3
:10061000641AB200B219A8000A19A0006A18990059
:10062000D117910040178B00B516840031167E005B
:10063000B31579003A157300C7146F0058146A0097
:10064000EE1366008813630025135E00C7125B007B
:100650006C12570015125400C111510070114F0057
:1006600021114B00D61049008D1047004610440060
:1006700002104200C00F4000800F3E00420F3C00BD
:10068000060F3B00CB0E3800930E37005C0E350092
:10069000270E3400F30D3200C10D3100900D3000F3
:1006A000600D2E00320D2D00050D2C00D90C2B00F5
:1006B000AE0C2900850C29005C0C2700350C2700A6
:1006C0000E0C2600E80B2400C40B2400A00B230012
:1006D0007D0B23005A0B2100390B2100180B200041
:1006E000F80A1F00D90A1E00BB0A1E009D0A1D0041
:1006F000800A1D00630A1C00470A1B002C0A1B000D
:10070000110A1A00F7091A00DD091900C4091900B5
:10071000AB091900920917007B091800630917003B
:100720004C09160036091600200916000A091500A2
:10073000F5081500E0081400CC081400B8081400EF
:10074000A4081400900813007D0812006B08130021
:10075000580812004608120034081100230811003E
:100760001208110001081100F0071000E007100046
:10077000D0071000C0071000B0070F00A10710003D
:1007800091070E0083070F0074070F0065070E0026
:1007900057070E0049070E003B070D002E070E00FD
:1007A00020070D0013070D0006070D00F9060C00C9
:1007B000ED060D00E0060C00D4060C00C8060C0087
:1007C000BC060C00B0060C00A4060B0099060C0039
:1007D0008D060B0082060B0077060B006C060B00E3
:1007E00061060A0057060B004C060A0042060A0082
:1007F00038060A002E060A0024060A001A060A0015
:100800001006090007060A00FD050900F4050900A5
:10081000EB050900E2050900D9050900D00509002A
:10082000C7050900BE050900B5050800AD050800AB
:10083000A50509009C050800940508008C05080022
:10084000840508007C050800740508006C05070095
:10085000650508005D050700560508004E05070000
:100860004705070040050800380507003105070067
:100870002A050700230507001C05060016050700CA
:100880000F0507000805060002050700FB04060027
:10089000F5040700EE040600E8040600E204070081
:1008A000DB040600D5040600CF040600C9040600D8
:1008B000C3040600BD040600B7040600B104050029
:1008C000AC040600A6040600A00405009B04060074
:1008D00095040500900406008A04050085040500BF
:1008E000800406007A040500750405007004050004
:1008F0006B04050066040500610405005C04050046
:1009000057040500520405004D0405004804050085
:10091000430405003E0404003A04050035040500C4
:10092000300404002C0405002704040023040500FF
:100930001E0404001A040400160405001104040037
:100940000D0404000904050004040400000404006C
:10095000FC030400F8030400F4030400F0030400A3
:10096000EC030400E8030400E4030400E0030400D3
:10097000DC030400D8030400D4030400D003040003
:10098000CC030400C8030300C503030024F404D906
:10099000201BC40C5C0E9804C4095F02650771013A
:1009A000F405F900FB04B30048048700C1036900A3
:1009B0005803550003034500BE023A00840231008B
:1009C00053022A002902250004022000E4011C0031
:1009D000C8011900AF011700980114008401130029
:1009E000710110006101100051010E0043010D0062
:1009F00036010B002B010B0020010B001501090033
:100A00000C01090003010800FB000800F3000800C6
:100A1000EB000700E4000600DE000600D800060038
:100A2000D2000600CC000500C7000500C20005008A
:100A3000BD000400B9000400B5000400B1000400CA
:100A4000AD000400A9000400A5000300A2000300FB
:100A50009F0004009B000300980003009500020023
:100A600093000300900003008D0002008B00030040
:100A7000880002008600020084000300810002005A
:100A80007F0002007D0002007B000200790002006E
:100A9000770001007600020074000200720001007D
:100AA000710002006F0002006D0001006C00020086
:100AB0006A00010069000200670001006600010091
:100AC0006500010064000200620001006100010095
:100AD000600001005F0002005D0001005C00010099
:100AE0005B0001005A00010059000100580001009C
:100AF000570001005600010055000100540001009C
:100B00005300000053000100520001005100010099
:100B1000500001004F0001004E0000004E00010097
:100B20004D0001004C0001004B0000004B00010093
:100B30004A0001004900010048000000480001008F
:100B4000470001004600000046000100450000008B
:100B50004500010044000100430000004300010083
:100B6000420000004200010041000000410001007D
:100B7000400001003F0000003F0001003E00000077
:100B80003E0001003D0000003D0001003C0000006F
:100B90003C0000003C0001003B0000003B00010065
:100BA0003A0000003A00010039000000390001005D
:100BB0003800000038000000380001003700000055
:100BC000370001003600000036000000360001004A
:100BD0003500000035000000350001003400000041
:100BE0003400000034000100330000003300000036
:100BF000330001003200000032000000320001002A
:100C00003100000031000000310001003000000020
:100C100030000000300001002F0000002F00000015
:100C20002F0000002F0001002E0000002E00000009
:100C30002E0001002D0000002D0000002D000000FE
:100C40002D0001002C0000002C0000002C000000F2
:100C50002C0001002B0000002B0000002B000000E6
:100C60002B0001002A0000002A0000002A000000DA
:100C70002A000100290000002900000029000000CE
:100C800029000000290001002800000028000000C1
:100C900028000000280000002800010027000000B4
:100CA00027000000270000002700000027000100A7
:100CB000260000002600000026000000260000009C
:100CC000260001002500000025000000250000008E
:100CD0002500000025000000250001002400000080
:100CE0002400000024000000240000002400010073
:100CF0002300000023000000230000002300000068
:100D00002300000023000000230001002200000057
:100D1000220000002200000022000000220000004B
:100D2000220001002100000021000000210000003D
:100D3000210000002100000021000000210001002E
:100D40002000000020000000200000002000000023
:100D50002000000020000000200000002000010012
:100D60001F0000001F0000001F0000001F00000007
:100D70001F0000001F0000001F0001001E000000F7
:100D80001E0000001E0000001E00000039300000A0
:100D90003325000087190000B00F0000DB080000B9
:100DA000BD040000740200003F010000656E717513
:100DB000657565696E672022004B494C4C45442E91
:100DC00020005072696E7465722073746F70706564
:100DD000642064756520746F206572726F72732E63
:100DE0002046697820746865206572726F72206190
:100DF0006E6420757365204D39393920746F207207
:100E00006573746172742E202854656D706572610B
:100E1000747572652069732072657365742E205332
:100E200065742069742061667465722072657374DC
:100E3000617274696E67290A004E6F2043686563AA
:100E40006B73756D2077697468206C696E65206EB0
:100E5000756D6265722C204C617374204C696E65EF
:100E60003A2000636865636B73756D206D69736DFF
:100E7000617463682C204C617374204C696E653A10
:100E800020004C696E65204E756D62657220697335
:100E9000206E6F74204C617374204C696E65204E17
:100EA000756D6265722B312C204C617374204C6916
:100EB0006E653A20004D3131300020496E76616C0C
:100EC00069642065787472756465722000000000A2
:100ED0000000000000000000000000A042000048E8
:100EE0004300004843486F6D696E67206661696C16
:100EF0006564002C20002C200050726F74656374B0
:100F000065642050696E0A0020573A00205A3A0062
:100F100020593A0020436F756E7420583A002045DE
:100F20003A00205A3A0020593A00583A003A004311
:100F300061703A00526573656E643A200020746FE8
:100F40006F206C6F6E6720657874727573696F6E51
:100F50002070726576656E7465640A0020636F6C3C
:100F60006420657874727573696F6E20707265762F
:100F7000656E7465640A00627573793A20706175F4
:100F800073656420666F7220696E7075740A006202
:100F90007573793A2070617573656420666F72208D
:100FA000757365720A00627573793A2070726F63A7
:100FB000657373696E670A004B494C4C45442E209B
:100FC000004B494C4C206361757365642062792045
:100FD000746F6F206D75636820696E6163746976E4
:100FE000652074696D65202D2063757272656E745D
:100FF00020636F6D6D616E643A20005072696E748B
:1010000065722068616C7465642E206B696C6C2855
:10101000292063616C6C6564210A002020506C619A
:101020006E6E657242756666657242797465733A72
:1010300020002046726565204D656D6F72793A20FB
:1010400000436F6D70696C65643A204170722032A4
:101050003320323031390A00207C20417574686FAA
:10106000723A20323031392D30332D31313B205618
:101070006F6C756D6574726963204C756D656E205B
:10108000776974682045696E737920616E642049C0
:1010900047555320616E64204241524943554441B3
:1010A000206669726D77617265204F4E0A0032309A
:1010B00031382D30372D333100204C617374205579
:1010C0007064617465643A20006275676669782DA2
:1010D000312E312E780A004D61726C696E002053FA
:1010E0006F6674776172652052657365740A0020BB
:1010F0005761746368646F672052657365740A0092
:101100002042726F776E206F75742052657365741C
:101110000A002045787465726E616C2052657365B3
:10112000740A00506F77657255700A0073746172AB
:10113000740A002064726976657220637572726544
:101140006E743A20005761726E696E673A20486F7C
:101150006D696E672042756D702044697669736FA2
:1011600072203C20310A000202040000803F00008F
:101170000000000000400000A042000048430000C2
:10118000484348617264636F6465642044656661C6
:10119000756C742053657474696E6773204C6F614D
:1011A0006465640A00320000003200000032000072
:1011B000003200000000002041000020410000201B
:1011C000410000204100004844000048440000481D
:1011D000440000484420204D3930360020286D6DF1
:1011E0002900205430204500205A00205900205862
:1011F0000053746570706572206472697665722040
:1012000063757272656E743A0A00204400204900CA
:1012100020204D33303120500050494420736574F4
:1012200074696E67733A0A00205A00205900202022
:101230004D323036205800486F6D65206F666673FA
:1012400065743A0A00204500205A002059002058B1
:101250000020540020530020204D32303520510012
:1012600020453C6D61785F655F6A65726B3E00206A
:10127000583C6D61785F785F6A65726B3E20593CBF
:101280006D61785F795F6A65726B3E205A3C6D6173
:10129000785F7A5F6A65726B3E00416476616E6367
:1012A00065643A20513C6D696E5F7365676D656E6C
:1012B000745F74696D655F75733E20533C6D696E34
:1012C0005F66656564726174653E20543C6D696E4D
:1012D0005F74726176656C5F666565647261746582
:1012E0003E0020540020520020204D323034205047
:1012F00000416363656C65726174696F6E20287567
:101300006E6974732F7332293A20503C7072696E83
:10131000745F616363656C3E20523C7265747261F8
:1013200063745F616363656C3E20543C74726176E4
:10133000656C5F616363656C3E0A00204500205A5E
:101340000020590020204D3230312058004D617866
:10135000696D756D20416363656C65726174696F59
:101360006E2028756E6974732F7332293A0A002033
:101370004500205A0020590020204D32303320589B
:10138000004D6178696D756D206665656472617484
:1013900065732028756E6974732F73293A0A0020CB
:1013A0004500205A0020590020204D393220580095
:1013B00053746570732070657220756E69743A0A93
:1013C0000020204D3230302044300A0020204D32A1
:1013D00030302044002044697361626C65640A0007
:1013E00046696C616D656E742073657474696E67AF
:1013F000733A002020473231202020203B005452F5
:1014000049474745524544006F70656E003A2000D9
:101410007A5F6D696E00795F6D696E00785F6D61EE
:101420007800785F6D696E005265706F7274696ED6
:101430006720656E6473746F702073746174757364
:101440000A00000000010000000100008000555566
:1014500055000000400033333300AAAA2A00499205
:10146000240000002000C7711C0099991900D14583
:101470001700555515003BB11300244912001111F6
:101480001100000010000F0F0F00E3380E00437929
:101490000D00CCCC0C00C3300C00E8A20B00642182
:1014A0000B00AAAA0A00703D0A009DD80900427BE1
:1014B000090092240900DCD3080088880800104243
:1014C000080000000800F0C107008787070075507A
:1014D0000700711C07003EEB0600A1BC06006990E6
:1014E000060066660600703E06006118060017F4E6
:1014F000050074D105005BB00500B2900500627272
:1015000005005555050078390500B81E050005058C
:1015100005004EEC040087D40400A1BD040090A790
:10152000040049920400C17D0400EE690400C7561E
:101530000400444404005C3204000821040041100B
:101540000400000004003FF00300F8E0030026D28E
:101550000300C3C30300CCB503003AA803000A9BF1
:101560000300388E0300C08103009F750300D0691B
:101570000300505E03001D53030034480300913DF7
:1015800003003333030016290300381F03009715A7
:101590000300300C0300030303000BFA020049F1BF
:1015A0000200BAE802005CE002002DD802002DD053
:1015B000020059C80200B0C0020031B90200DAB11D
:1015C0000200AAAA0200A0A30200BC9C0200FA9595
:1015D00002005C8F0200DF88020082820200457CEC
:1015E00002002776020027700200436A02007C6432
:1015F0000200D05E02003F590200C85302001000F2
:101600001900F03F190045340045330045320045CC
:1016100031004530005A32005932005832005A0029
:101620005900580070012C0190012701B0012201DE
:10163000C0011D01F00118011002130130020E015A
:101640006002090190020401C002FF000003FA00D9
:101650004003F5008003F000D003EB002004E60017
:101660007004E100E004DC004005D700C005D200B2
:101670004006CD00D006C8008007C3003008BE0079
:10168000F008B900C009B400B00AAF00B00BAA005E
:10169000D00CA500000EA000500F9B00C0109600BB
:1016A0005012910000148C00C0158700B017820002
:1016B000B0197D00D01B7800001E730040206E0022
:1016C00090226900F024640040275F0090295A00AE
:1016D000E02B5500102E500020304B0010324600F9
:1016E000E033410090353C0010373700703832004D
:1016F000A0392D00B03A2800A03B2300603C1E001A
:10170000103D1900903D1400103E0F00703E0A007D
:10171000C03E0500003F0000403FFBFF803FF6FF5A
:10172000C03FF1FF453120544845524D414C2052B5
:10173000554E415741590042454420544845524D69
:10174000414C2052554E4157415900546865726DC5
:10175000616C2052756E6177617900453120457268
:10176000723A204D415854454D50004572723A200E
:101770004D415854454D5020424544004D41585428
:10178000454D502074726967676572656400453124
:10179000204572723A204D494E54454D50004572D5
:1017A000723A204D494E54454D5020424544004D1B
:1017B000494E54454D50207472696767657265647F
:1017C00000202F002042403A0020403A00221620FC
:1017D000161E161B161816151612160F160C1609BD
:1017E000160616747275650066616C736500207468
:1017F000656D706572617475726520707265776170
:10180000726E207472696767657265643A200020A1
:101810007072657761726E20666C616720636C65BB
:10182000617265640A0020746F6F206C6F6E6720B0
:10183000657874727573696F6E2070726576656E07
:101840007465640A0020636F6C6420657874727537
:1018500073696F6E2070726576656E7465640A00D8
:101860006563686F3A0000000A0B02090C0D0E0850
:101870000703040100000000000000000000000059
:101880000000000000000000000000000000000058
:101890000000121110000000000000000000000015
:1018A0000000000000000000000000000000000038
:1018B000000000000000000000000000556E6B6E8C
:1018C0006F776E20636F6D6D616E643A2022000049
:1018D0000020002300260029002C002F00320000E9
:1018E0000100000301060109010000220025002873
:1018F000002B002E00310034000201000005010819
:10190000010B010505050507050808080802020284
:10191000020A0A080804040404010101010101018A
:10192000010303030303030303040707070C0C0C61
:101930000C0C0C0C0C020202020606060606060639
:10194000060B0B0B0B0B0B0B0B07070A0A0A0A0AF9
:101950000A050505040404080801021020200808EF
:101960001020401020408002010201080402010101
:1019700002040810204080804020100804020180EA
:101980000402018040201008040201080402010141
:10199000020408102040800102040810204080103A
:1019A000080408801020400440801020400480FF7C
:1019B000FDFCFAF8F6F4F2F0EEECEAE9E7E5E3E133
:1019C000E0DEDCDAD9D7D5D4D2D0CFCDCBCAC8C7E8
:1019D000C5C3C2C0BFBDBCBAB9B7B6B4B3B2B0AF6D
:1019E000ADACAAA9A8A6A5A4A2A1A09E9D9C9A99C7
:1019F000989795949392908F8E8D8B8A89888786FD
:101A000084838281807F7E7D7B7A79787776757416
:101A1000737271706F6E6D6C6B6A6968676665640E
:101A2000636261605F5E5D5C5B5A595858575655FA
:101A30005453525150504F4E4D4C4B4A4A494847CF
:101A40004646454443424241403F3E3E3D3C3B3B8F
:101A50003A39383837363535343332323130302F41
:101A60002E2E2D2C2B2B2A292928272726252524E5
:101A7000232322212120201F1E1E1D1C1C1B1B1A7C
:101A80001919181817161615151413131212111107
:101A9000100F0F0E0E0D0D0C0C0B0A0A0909080889
:101AA00007070606050504040303020201000023DC
:101AB000646566696E652044454641554C545F4BEC
:101AC00064200023646566696E652044454641557F
:101AD0004C545F4B69200023646566696E65204441
:101AE000454641554C545F4B7020005049442041BD
:101AF00075746F74756E652066696E697368656468
:101B0000212050757420746865206C617374204BBB
:101B1000702C204B6920616E64204B6420636F6ED3
:101B20007374616E74732066726F6D2062656C6F82
:101B30007720696E746F20436F6E66696775726196
:101B400074696F6E2E680A00504944204175746FA5
:101B500074756E65206661696C6564212074696DB9
:101B6000656F75740A00453120544845524D414C0B
:101B70002052554E4157415900546865726D616C51
:101B80002052756E61776179004531204865617436
:101B9000696E67206661696C656400486561746997
:101BA0006E67206661696C65640050494420417528
:101BB000746F74756E65206661696C65642120546C
:101BC000656D706572617475726520746F6F2068E1
:101BD0006967680A00204B643A2000204B693A206C
:101BE00000204B703A20000A20436C6173736963D4
:101BF00020504944200A002054753A2000204B759B
:101C00003A2000206D61783A2000206D696E3A20FC
:101C10000020643A200020626961733A2000504934
:101C200044204175746F74756E65206661696C65DA
:101C300064212054656D70657261747572652074DD
:101C40006F6F20686967680A0050494420417574C5
:101C50006F74756E652073746172740A0050494424
:101C6000204175746F74756E65206661696C65647A
:101C70002120426164206578747275646572206EFB
:101C8000756D6265720A006265640A002C207379C2
:101C90007374656D2073746F70706564212048657E
:101CA000617465725F49443A20004265642068654A
:101CB0006174696E67206661696C6564004865617E
:101CC00074696E67206661696C65640045312048FF
:101CD000656174696E67206661696C65640048655A
:101CE0006174696E67206661696C6564000000213B
:101CF00000240027002A002D0030003300010100DD
:101D000000040107010A014572726F723A00837183
:101D100011241FBECFEFD1E2DEBFCDBF00E00CBF6C
:101D200012E0A0E0B2E0E0E3FAEF00E00BBF02C097
:101D300007900D92AA35B107D9F72FE0AAE5B2E0D6
:101D400001C01D92A833B207E1F71EE0C8E8DEE04B
:101D500000E006C021970109802FFE010E94DB7C74
:101D6000C738D10780E00807A9F70E94AC5B0C9444
:101D7000167D0C9400002F923F924F925F926F92CB
:101D80007F928F929F92AF92BF92CF92DF92EF920B
:101D9000FF920F931F93CF93DF93CDB7DEB72F97AB
:101DA0000FB6F894DEBF0FBECDBFF8948FEF9FEF54
:101DB0009093890080938800BAE0DB2E1F861E86F0
:101DC00078948091D9049091DA04A091DB04B091C9
:101DD000DC04892B8A2B8B2B09F0C5C18091E30C85
:101DE0008823D1F01092E30C8091E10C9091E20CE9
:101DF000892B91F010929A041092E20C1092E10C4F
:101E000090910C0F80910D0F981731F080910D0F6C
:101E10008F5F8F7080930D0F8091E10C9091E20C99
:101E2000892B09F4A0C10091D5041091D60420910A
:101E3000D7043091D8048091D1049091D204A0911C
:101E4000D304B091D4044091C80450E060E070E045
:101E5000801B910BA20BB30B481759076A077B072E
:101E600010F4DB01CA01482F800F911FA21FB31F7E
:101E70008093D5049093D604A093D704B093D8044C
:101E800080918400909185004C968090AF04909052
:101E9000B004A090B104B090B20400919F041091DE
:101EA000A0042091A1043091A204080D191D2A1D3F
:101EB0003B1D0093AF041093B0042093B104309302
:101EC000B20437FD1CC0409A00917802109179024B
:101ED00020917A0230917B0280901502082C000C30
:101EE0009908AA08BB08080D191D2A1D3B1D00935F
:101EF00078021093790220937A0230937B028090CB
:101F0000B3049090B404A090B504B090B6040091CE
:101F1000A3041091A4042091A5043091A604080DF7
:101F2000191D2A1D3B1D0093B3041093B404209384
:101F3000B5043093B60437FD1CC0419A00917C0271
:101F400010917D0220917E0230917F0280901602D6
:101F5000082C000C9908AA08BB08080D191D2A1D99
:101F60003B1D00937C0210937D0220937E023093F0
:101F70007F028090B7049090B804A090B904B0900C
:101F8000BA040091A7041091A8042091A9043091EB
:101F9000AA04080D191D2A1D3B1D0093B7041093B8
:101FA000B8042093B9043093BA0437FD1CC0429A98
:101FB000009180021091810220918202309183026F
:101FC00080901702082C000C9908AA08BB08080D7D
:101FD000191D2A1D3B1D009380021093810220933E
:101FE0008202309383028090BB049090BC04A09046
:101FF000BD04B090BE040091AB041091AC042091DC
:10200000AD043091AE04080D191D2A1D3B1D00932F
:10201000BB041093BC042093BD043093BE0437FD71
:102020001CC0439A0091840210918502209186027F
:102030003091870280901802082C000C9908AA0899
:10204000BB08080D191D2A1D3B1D00938402109327
:10205000850220938602309387020091AF0410918D
:10206000B0042091B1043091B20437FD15C08090C6
:102070009B0490909C04A0909D04B0909E0408192D
:1020800019092A093B090093AF041093B004209367
:10209000B1043093B20440980091B3041091B40499
:1020A0002091B5043091B60437FD15C080909B0493
:1020B00090909C04A0909D04B0909E04081919096A
:1020C0002A093B090093B3041093B4042093B50488
:1020D0003093B60441980091B7041091B804209150
:1020E000B9043091BA0437FD15C080909B049090DC
:1020F0009C04A0909D04B0909E04081919092A0917
:102100003B090093B7041093B8042093B9043093AB
:10211000BA0442980091BB041091BC042091BD0404
:102120003091BE0437FD15C080909B0490909C04B4
:10213000A0909D04B0909E04081919092A093B0932
:102140000093BB041093BC042093BD043093BE04E1
:102150004398415041F02091840030918500281728
:102160003907C8F392CE8091D9049091DA04A091F6
:10217000DB04B091DC04892B8A2B8B2B09F0D1C5B1
:10218000E091E10CF091E20C309709F450C7809196
:10219000D5049091D604A091D704B091D804409171
:1021A000D1045091D2046091D3047091D404841767
:1021B0009507A607B707D0F010929A041092E20C88
:1021C0001092E10C90910C0F80910D0F981709F46B
:1021D0002EC780910D0F8F5F8F7080930D0FA0ED34
:1021E0004A2EA7E05A2E612C712CE5C34091CD04F4
:1021F0005091CE046091CF047091D00448175907D4
:102200006A077B0708F4A4C18090C9049090CA04AF
:10221000A090CB04B090CC0486A997A9A0ADB1AD95
:1022200088169906AA06BB0608F076C181149104A7
:10223000A104B10449F48091960490919704A0916F
:102240009804B091990464C1B0E0AC2D882D392D6B
:102250002A2DF981EA817B816C815D814E819F818C
:102260005091DD0C589F712D66274091DE0C489FE0
:10227000700D611D1090DF0C189E600D539F700D46
:10228000611D439F600D529F600DF72FE62FF79F52
:10229000512D44279927F69F500D411D9B1FE79F05
:1022A000500D411D9B1FE69F400D911DF42FE92FFE
:1022B000F79FA12D44279927F69FA00D411D9B1F35
:1022C000E79FA00D411D9B1FE69F400D911DF42F20
:1022D000E92F552780919604309197042091980416
:1022E0000090E9040B2A09F483C04091E5044F9F54
:1022F00051198B0B3B0B2B0B9091E6049F9F5019B0
:1023000081093B0B2B0BA091E704AF9F801931098A
:102310002B0B4E9F501981093B0B2B0B9E9F801955
:1023200031092B0BAE9F30192109F79FA12D4427AE
:102330009927F69FA00D411D9B1FE79FA00D411DF2
:102340009B1FE69F400D911DF42FE92F4091E10462
:102350004F9F510D8B1F3B1F2B1F9091E2049F9F9E
:10236000500D811D3B1F2B1FA091E304AF9F800DDB
:10237000311D2B1F4E9F500D811D3B1F2B1F9E9FFC
:10238000800D311D2B1FAE9F300D211DF79FA12DFC
:1023900044279927F69FA00D411D9B1FE79FA00D85
:1023A000411D9B1FE69F400D911DF42FE92F409189
:1023B000DD044F9F51198B0B3B0B2B0B9091DE04CF
:1023C0009F9F501981093B0B2B0BA091DF04AF9FFE
:1023D000801931092B0B4E9F501981093B0B2B0B98
:1023E0009E9F801931092B0BAE9F3019210982C0A5
:1023F0004091E5044F9F510D8B1F3B1F2B1F909168
:10240000E6049F9F500D811D3B1F2B1FA091E704E9
:10241000AF9F800D311D2B1F4E9F500D811D3B1F07
:102420002B1F9E9F800D311D2B1FAE9F300D211D38
:10243000F79FA12D44279927F69FA00D411D9B1FB3
:10244000E79FA00D411D9B1FE69F400D911DF42F9E
:10245000E92F4091E1044F9F51198B0B3B0B2B0B44
:102460009091E2049F9F501981093B0B2B0BA09187
:10247000E304AF9F801931092B0B4E9F501981093E
:102480003B0B2B0B9E9F801931092B0BAE9F3019F4
:102490002109F79FA12D44279927F69FA00D411DE3
:1024A0009B1FE79FA00D411D9B1FE69F400D911DA7
:1024B000F42FE92F4091DD044F9F510D8B1F3B1FDF
:1024C0002B1F9091DE049F9F500D811D3B1F2B1FE2
:1024D000A091DF04AF9F800D311D2B1F4E9F500D2B
:1024E000811D3B1F2B1F9E9F800D311D2B1FAE9FFB
:1024F000300D211D1124CA2EF983EA837B836C835E
:102500005D834E839F8390E0932BA0E0B0E0A22BED
:102510002CE83DE011E011C082A993A9A4A9B5A9B6
:10252000F7CFB695A79597958795110F2C5F3F4FDD
:102530004DE0283A340709F449C4F9014591559111
:1025400065917491481759076A077B0750F33EC499
:102550004091C4045091C5046091C6047091C704B1
:10256000481759076A077B0708F0B8C18091C30470
:1025700081111FC0DF01AE5BBF4FED90FD900D914B
:102580001C9113971D962D913D914D915C9162A9DF
:1025900073A984A995A90E94754C51E05093C30476
:1025A000E091E10CF091E20C82A893A8A4A8B5A850
:1025B00086C18091BF049091C004A091C104B091E4
:1025C000C20442AD53AD64AD75AD84179507A6073F
:1025D000B70708F06EC10097A105B10549F48090D6
:1025E000960490909704A0909804B090990467C1C5
:1025F00030E04885882E292F8A2FE9857A856B85DA
:102600005C859D859091DD0C989D612D55272090CE
:10261000DE0C289C600D511D1090DF0C189C500D95
:10262000929F600D511D229E500D989F500DE62FD8
:10263000752FE69F912D22243324E59F900D211CB8
:10264000331E769F900D211C331E759F200C311C6C
:10265000E22D732DE69F412D22243324E59F400D6A
:10266000211C331E769F400D211C331E759F200CAC
:10267000311CE22D732D99278090960420919704A8
:10268000809198040090E904032A09F483C0209003
:10269000E5042E9E9119830A230B830B3090E604E8
:1026A0003E9E90198108230B830B4091E7044E9FB7
:1026B00080182109830B279E90198108230B830B17
:1026C000379E80182109830B479F20198109E69FB7
:1026D000412D22243324E59F400D211C331E769F7B
:1026E000400D211C331E759F200C311CE22D732DD3
:1026F0002090E1042E9E910D831E231F831F309096
:10270000E2043E9E900D811C231F831F4091E30431
:102710004E9F800C211D831F279E900D811C231F1F
:10272000831F379E800C211D831F479F200D811D15
:10273000E69F412D22243324E59F400D211C331EAA
:10274000769F400D211C331E759F200C311CE22DFD
:10275000732D2090DD042E9E9119830A230B830B89
:102760003090DE043E9E90198108230B830B40912C
:10277000DF044E9F80182109830B279E9019810842
:10278000230B830B379E80182109830B479F201949
:10279000810982C02090E5042E9E910D831E231F87
:1027A000831F3090E6043E9E900D811C231F831FE3
:1027B0004091E7044E9F800C211D831F279E900DA2
:1027C000811C231F831F379E800C211D831F479F61
:1027D000200D811DE69F412D22243324E59F400DCD
:1027E000211C331E769F400D211C331E759F200C2B
:1027F000311CE22D732D2090E1042E9E9119830A45
:10280000230B830B3090E2043E9E90198108230B2A
:10281000830B4091E3044E9F80182109830B279E70
:1028200090198108230B830B379E80182109830B95
:10283000479F20198109E69F412D22243324E59FDB
:10284000400D211C331E769F400D211C331E759FA9
:10285000200C311CE22D732D2090DD042E9E910D55
:10286000831E231F831F3090DE043E9E900D811C2B
:10287000231F831F4091DF044E9F800C211D831F67
:10288000279E900D811C231F831F379E800C211DC6
:10289000831F479F200D811D11244887E9877A8770
:1028A0006B875C879D87912C922AA12CB12CA82A3A
:1028B00006C0E15BFF4F80809180A280B3808CE8EE
:1028C0009DE021E0FC014591559165917491481579
:1028D00059056A057B0508F4DCC2E6C280911A023C
:1028E00090911B02A0911C02B0911D02B7FF5BC02A
:1028F000E95BFF4F80809180A280B3808CE89DE0EF
:1029000021E0FC0145915591659174914815590557
:102910006A057B0550F4B694A79497948794220F88
:102920000496ADE0883A9A0761F72093C804B0E2B4
:102930008B169104A104B10408F44AC320E2821A60
:102940009108A108B108811438E09306A104B104EC
:1029500008F41AC344E0949EC00111248457964F92
:10296000FC01329625913491782D6627739FA00142
:10297000729F410D561F0694461F561F112460E09A
:1029800070E0FC0125913491C901A0E0B0E0841B06
:10299000950BA60BB70B80931A0290931B02A09382
:1029A0001C02B0931D0240901A0250901B026090CE
:1029B0001C0270901D028091E10C9091E20C892B19
:1029C00009F0A7C10E94184D9093E20C8093E10C8E
:1029D000892B09F49EC1E091E10CF091E20C808119
:1029E00083FF3EC085899689A789B08D8093780240
:1029F00090937902A0937A02B0937B02818D928D9D
:102A0000A38DB48D80937C0290937D02A0937E026F
:102A1000B0937F02858D968DA78DB0A180938002A3
:102A200090938102A0938202B093830281A192A12C
:102A3000A3A1B4A18093840290938502A0938602FF
:102A4000B093870290910C0F80910D0F981709F4A5
:102A5000B9CF80910D0F8F5F8F7080930D0FB2CF24
:102A6000058916892789308D81E001151105210519
:102A7000310509F480E0818C928CA38CB48C811494
:102A80009104A104B10409F08260458D568D678DD3
:102A900070A1411551056105710509F084608093AD
:102AA0009A041092BF041092C0041092C1041092B4
:102AB000C2041092C9041092CA041092CB0410925E
:102AC000CC0485A196A1A7A1B0A58093D104909331
:102AD000D204A093D304B093D404442455243201E7
:102AE000481A590A6A0A7B0A4092BB045092BC04F5
:102AF0006092BD047092BE044092B7045092B80434
:102B00006092B9047092BA044092B3045092B40433
:102B10006092B5047092B6044092AF045092B00433
:102B20006092B1047092B204000F111F221F331F74
:102B300000939F041093A0042093A1043093A20457
:102B4000880C991CAA1CBB1C8092A3049092A4041C
:102B5000A092A504B092A604440F551F661F771FCC
:102B60004093A7045093A8046093A9047093AA0407
:102B700041A152A163A174A1440F551F661F771F85
:102B80004093AB045093AC046093AD047093AE04D7
:102B9000880F991FAA1FBB1F80939B0490939C04CE
:102BA000A0939D04B0939E041092D5041092D60475
:102BB0001092D7041092D80482A593A5A4A5B5A518
:102BC0008093CD049093CE04A093CF04B093D0040F
:102BD00086A597A5A0A9B1A98093C4049093C50424
:102BE000A093C604B093C70441A5EA5BFF4F508190
:102BF0008091950458130AC08091190290E0242F07
:102C0000042E000C330B2817390731F0509395042C
:102C1000409319020E94C74C8091AE0281110E941C
:102C20004D2B8FEF9FEFDC0180931A0290931B02D4
:102C3000A0931C02B0931D02E091E10CF091E20C14
:102C4000DF01DE96ED90FD900D911C9122A933A934
:102C500044A955A9E55BFF4F608171818281938111
:102C60000E94754C1092C304E091E10CF091E20CCB
:102C7000E55BFF4F80809180A280B3808CE89DE06F
:102C800021E0FC01459155916591749148155905D4
:102C90006A057B0558F4B694A79497948794220FFD
:102CA000049648EA5DE04817590759F72093C8048D
:102CB00050E285169104A104B10408F4B2C190E277
:102CC000891A9108A108B1088114A8E09A06A10404
:102CD000B10408F483C1B4E09B9EC0011124845761
:102CE000964FFC01329625913491782D6627739F7B
:102CF000A001729F410D561F0694461F561F1124B6
:102D0000FC0145905490612C712C441A550A6108BD
:102D100071084092D9045092DA046092DB047092F8
:102D2000DC048091D9049091DA04A091DB04B09185
:102D3000DC04AC01BD01009721E0A207B10520F041
:102D40004FEF5FEF60E070E0841B950BA60BB70BB5
:102D50008093D9049093DA04A093DB04B093DC044D
:102D6000F89480918400909185004096DA94DD205B
:102D700059F0AE85BF85A40FB51FBF87AE87A817D2
:102D8000B90708F41DC802C09F878E872E853F852E
:102D9000309389002093880078942F960FB6F8948A
:102DA000DEBF0FBECDBFDF91CF911F910F91FF907E
:102DB000EF90DF90CF90BF90AF909F908F907F90DB
:102DC0006F905F904F903F902F9008951093C8049C
:102DD00080329105A105B10508F456C08097A1097C
:102DE000B109811528E09207A105B105F0F044E092
:102DF000949F900111242457364FF9013296459142
:102E00005491EE27859FB001849F610D7E1F06942B
:102E10006E1F7E1F1124F90145905490612C712C76
:102E2000461A570A6108710822C0AC01BD017695A7
:102E3000679557954795FA01EC7FAF0144575A4F74
:102E4000FA0125913491FA01329665917491877057
:102E5000869FA001879F500D1124F3E0569547955A
:102E6000FA95E1F72901441A550A612C712C840C5A
:102E7000951CA61CB71C8092C9049092CA04A0920B
:102E8000CB04B092CC0497CD80E290E0A0E0B0E01B
:102E9000A5CFB694A79497948794220F04965DE0EB
:102EA000883A950709F00ECD2093C80470E2871682
:102EB0009104A104B10408F461C070E2871A91087A
:102EC000A108B108811488E09806A104B104F8F0C3
:102ED000A4E09A9EC00111248457964FFC013296BB
:102EE00025913491B82D6627B39FA001B29F410D63
:102EF000561F0694461F561F1124FC0145905490FE
:102F0000612C712C441A550A6108710822C0D50140
:102F1000C401B695A79597958795FC01EC7FCF01E5
:102F200084579A4FFC0145905490FC0132962591AC
:102F30003491482D4770429FC001439F900D11244A
:102F400063E0969587956A95E1F7481A590A612CCE
:102F5000712C8091BF049091C004A091C104B091E4
:102F6000C204840D951DA61DB71D8093BF049093C8
:102F7000C004A093C104B093C2041DCD60E2862EAC
:102F8000912CA12CB12C99CFD501C401B695A79550
:102F900097958795FC01EC7FCF0184579A4FFC01F0
:102FA00025913491FC01329645915491682D6770BA
:102FB000649FC001659F900D112443E0969587950D
:102FC0004A95E1F7281B390BC901A0E0B0E0E3CC3A
:102FD00040E2842E912CA12CB12CB0CCD501C4019F
:102FE000B695A79597958795FC01EC7FCF018457FF
:102FF0009A4FFC0145905490FC01329625913491F2
:10300000482D4770429FC001439F900D1124A3E0BB
:1030100096958795AA95E1F7481A590A612C712C63
:1030200078CE90E2892E912CA12CB12C48CE80ED47
:10303000482E87E0582E612C712CC4CC8091D2058B
:103040009091D305981759F0E92FF0E0EE5AFA4F16
:1030500080819F5F9F779093D30590E008958FEFD5
:103060009FEF0895FF920F931F93CF93DF93FC017F
:1030700020812B3319F1D0918804D430F8F4F62E46
:10308000BC01C091EC040C2F10E0F0E6CF9FC00112
:1030900011248A5F9C4F0E94047DF801E450FD4F8B
:1030A000F082CF5FC43018F4C093EC0402C01092D9
:1030B000EC04DF5FD093880481E001C080E0DF9101
:1030C000CF911F910F91FF900895CF92DF92EF92D1
:1030D0000F931F93CF93DF9300D01F92CDB7DEB72E
:1030E000E090CC0C19821A821B821C82CE010196C0
:1030F0006C010DE212E029ED3CE045ED5CE061ED94
:103100007CE08DEC9CE00E946A370F900F900F904E
:103110000F90DF91CF911F910F91EF90DF90CF90A3
:1031200008950F931F93CF93DF9394E0899FE0015D
:1031300011248E010D521D4FFE01E953FD4FDE019A
:10314000A857BD4F2D913D914D915C91608171814A
:10315000828193810E94E779F80160837183828381
:103160009383FE01E353F14F85919591A591B4911D
:10317000FE01E152FD4F80839183A283B383FE0160
:10318000E752F14F85919591A591B491CB5FDD4FB9
:1031900088839983AA83BB83DF91CF911F910F917D
:1031A000089529ED3CE045ED5CE061ED7CE08DECBF
:1031B0009CE00C94B64F2F923F924F925F926F9289
:1031C0007F929F92AF92BF92CF92DF92EF92FF9247
:1031D0000F931F93CF93DF93CDB7DEB728970FB62A
:1031E000F894DEBF0FBECDBF1A012B01922EF32E35
:1031F000C82ED12CF601E858FB4FE491AA24A394E1
:103200001E160CF4A12CBB24B39420E030E0A901DD
:10321000C201B1010E940D7C18160CF0B12CCC0C2F
:10322000DD1CCC0CDD1CC6018353934F3C01FC011B
:103230001082118212821382B4DFF3012082318264
:1032400042825382E090CC0C20E030E0A901B8012A
:10325000892D9F2D0E94D37581110AC0F601E1517D
:10326000FE4F85919591A591B4918C019A2EFB2EDC
:10327000C801A92DBF2D8D839E83AF83B887198286
:103280001A821B821C82CE0101966C018E010B5F9B
:103290001F4F29ED3CE045ED5CE061ED7CE08DECFD
:1032A0009CE00E946A370E94A64FAB1459F08091AF
:1032B0008604882319F01092860404C085EE9EE0EF
:1032C0000E94DF2328960FB6F894DEBF0FBECDBF55
:1032D000DF91CF911F910F91FF90EF90DF90CF90F2
:1032E000BF90AF909F907F906F905F904F903F9076
:1032F0002F9008958091C4029091C502009731F0FB
:103300004AE050E060E070E00C94277360E070E009
:10331000CB010895EFDF97FD0AC0ECDF6F3F710529
:103320008105910509F02CF4E5DF862F089580E0F2
:1033300008958FEF08958091C4029091C502892B62
:1033400031F0E8DF91E0811103C090E001C091E02D
:10335000892F08950F931F93CF938091C40290916A
:10336000C502009711F1FC018F01C1912C2F2F7D17
:10337000A9F0C53411F0C536B9F7F801108260E044
:1033800070E08091C4029091C5020E94D471F8014E
:10339000C083562F472F382F292F0BC060E070E0D5
:1033A000CF911F910F910C94D47150E040E030E028
:1033B00020E0652F742F832F922FCF911F910F91B3
:1033C000089581548A3108F042C0E82FF0E040911E
:1033D000740250917502609176027091770204C078
:1033E00076956795579547958A95D2F7842F817082
:1033F00040FF2FC0E65AFD4F9081992309F1E091DB
:10340000BA0CF091BB0CE90FF11D908120ED290F52
:103410002A3098F09E3211F491810CC09D3211F047
:103420009B3271F4918120ED290F2A3030F09E32C9
:1034300039F4928190539A3018F42E2F9F2F02C0A6
:1034400020E090E02093C4029093C502089580E0AC
:1034500008950895B6DF882341F081E02091C402E9
:103460003091C502232B09F480E008959F92AF921A
:10347000BF92CF92DF92EF92FF920F931F93CF9361
:10348000DF938FE3A82E82E0B82E0CEB1CE0CDEC8E
:10349000DCE093EDC92E92E0D92E20E0E22E23E06D
:1034A000F22E912CF50181915F018BDF882301F1D0
:1034B00051DFF7012081211104C020910403222350
:1034C00039F0288139814A815B810E94E7790AC0FD
:1034D000F3E09F1639F0F60120813181428153815A
:1034E0000E94E679F801608371838283938309C027
:1034F00088819981AA81BB81F80180839183A2830D
:10350000B38393940C5F1F4F2496F4E0CF0ED11C2D
:103510002FEFE21AF20A84E09812C4CF86E49ADF11
:103520008823B9F017DF20E030E0A9010E940D7C6C
:1035300018167CF40FDF20E030E040E752E40E94F0
:10354000C37A60932D0270932E0280932F02909382
:103550003002DF91CF911F910F91FF90EF90DF909C
:10356000CF90BF90AF909F9008959091C00095FF2D
:10357000FCCF8093C6000895CF93DF93E7E0FDE191
:103580008491EF012196882319F0EFDFFE01F8CF37
:10359000E9EFFEE08491EF012196882319F0E5DF41
:1035A000FE01F8CFDF91CF910895CF92DF92EF9295
:1035B000FF920F931F93CF93DF9380918804843001
:1035C00008F01CC13BDDAC0197FD18C1982F20917C
:1035D0001F0D3091200D8A3019F09D3009F0DDC0AB
:1035E000109251052115310519F40E94E651E5CFDD
:1035F000F901EF50FB4F10821092200D10921F0D19
:10360000C1EFD4E0FE018191803211F4EF01FACFD5
:103610008E3409F07EC0209709F47BC065EB7EE014
:10362000CE010E948B758C01892B41F06EE470E015
:10363000CE0104960E94F07C009709F4CE014AE086
:1036400050E060E070E001960E9427736093ED0403
:103650007093EE048093EF049093F004C090210DDA
:10366000D090220DE090230DF090240D2FEFC21A80
:10367000D20AE20AF20A6C157D058E059F0529F033
:10368000012B19F482E89EE02AC06AE270E0CE01C4
:103690000E940B7D9C01009701F1982F9C1B10E06C
:1036A000992339F09150FE01E90FF11D808118270F
:1036B000F7CF4AE050E060E070E0C90101960E9457
:1036C0002773012F10E020E030E0601771078207B8
:1036D000930779F083E69EE002C089E39EE0DF91E4
:1036E000CF911F910F91FF90EF90DF90CF900C94AE
:1036F0007A5B8091ED049091EE04A091EF04B0917B
:10370000F0048093210D9093220DA093230DB0938C
:10371000240D8091130281111EC067E470E0CE0178
:103720000E94F07C0097B9F04AE050E060E070E061
:1037300001960E942773643071058105910558F444
:10374000E2ECFDE084918F010F5F1F4F882319F099
:103750000CDFF801F7CF6AE472E0CE010E94FB7C37
:10376000892B11F4109214026FE472E0CE010E94D2
:10377000FB7C892B21F489EB9DE00E94DF2364E52B
:1037800072E0CE010E94FB7C892B11F40E94362846
:1037900061E081EF94E066DC10CF2F3531050CF04D
:1037A0000CCF9C35B9F44ADC97FD07CF2091510529
:1037B000211103CF20911F0D3091200DA9014F5FE2
:1037C0005F4F5093200D40931F0DF901EF50FB4FB9
:1037D0008083F3CE9B3319F481E08093510580916F
:1037E00051058111EACEC90101969093200D809375
:1037F0001F0DF901EF50FB4F4083DFCEDF91CF91DA
:103800001F910F91FF90EF90DF90CF900895BF929E
:10381000CF92DF92EF92FF920F931F93CF93DF939C
:10382000CDB7DEB76E970FB6F894DEBF0FBECDBF33
:103830006091EA047091EB046115710551F14DE15D
:1038400050E0CE0101967C010E947C751E8EF7012E
:103850008F010E191F09B190BB2021F19AE0B91216
:10386000F7CF20C0B7018CEA9DE00E94A04D82E214
:103870007CDE8AE07ADEBB2051F10F5F1F4F809122
:10388000EA049091EB04080F191F1093EB040093C6
:10389000EA0481E02091EA043091EB04232BD1F477
:1038A00080E018C0F701E00FF11F108260E0C7014F
:1038B000D9DB882371F3E0E6F8E184916F019FEF93
:1038C000C91AD90A882371F250DEF601F6CF00E05A
:1038D00010E0DBCF6E960FB6F894DEBF0FBECDBF03
:1038E000DF91CF911F910F91FF90EF90DF90CF90DC
:1038F000BF9008958F929F92AF92BF92EF92FF92E6
:103900000F931F93CF93DF93CDB7DEB7A0970FB67A
:10391000F894DEBF0FBECDBF61157105810591051D
:1039200089F100E0842E912CA12CB12C102FEE24D3
:10393000E394F12CEC0EFD1EE00EF11C07FDFA9451
:10394000A50194010E94AB79F7016083B901CA0116
:103950000F5F611571058105910541F71F3F21F149
:10396000E1E0F0E0EC0FFD1FE10FF11D17FDFA950E
:1039700080818A3010F097E301C090E3890FF5DD74
:103980001150ECCF80E3A0960FB6F894DEBF0FBEC7
:10399000CDBFDF91CF911F910F91FF90EF90BF901E
:1039A000AF909F908F90E1CDA0960FB6F894DEBFB8
:1039B0000FBECDBFDF91CF911F910F91FF90EF9080
:1039C000BF90AF909F908F900895EF92FF920F93CA
:1039D0001F93CF93DF937C0184E53CDDD82F8823B0
:1039E00021F198DCC82F1816E4F4E0E6F8E18491A0
:1039F0008F010F5F1F4F882319F0B7DDF801F7CF54
:103A00008DE4B3DDB70180E090E04AE073DF6C2F16
:103A1000CC0F770B8AEB9EE00E94874D8AE0A5DDF4
:103A200008C08093FB02D0E004C08091CC0C80934E
:103A3000FB028D2FDF91CF911F910F91FF90EF909F
:103A40000895CF92DF92EF92FF926B017C0197FF76
:103A50000AC08DE28ADDF094E094D094C094C11C39
:103A6000D11CE11CF11C4AE0C701B601FF90EF90A8
:103A7000DF90CF903FCFFF920F931F93CF93DF93B1
:103A8000F82E092F162FEFE2FFE08491EF01219627
:103A9000882319F06ADDFE01F8CFEF2DF02F849115
:103AA000EF012196882319F060DDFE01F8CFEDE2E9
:103AB000FFE08491EF012196882319F056DDFE0185
:103AC000F8CF612F70E080E090E0BBDF8AE0DF910B
:103AD000CF911F910F91FF9048CD4F925F926F92BF
:103AE0007F928F929F92AF92BF92CF92DF92EF928E
:103AF000FF92CF93DF932091D3023091D402409173
:103B0000D5025091D6026091CD0C7091CE0C80916F
:103B1000CF0C9091D00C0E94E779AB01BC018AE2F6
:103B20009FE00E946A4D2091D7023091D8024091C7
:103B3000D9025091DA026091D10C7091D20C80912F
:103B4000D30C9091D40C0E94E779AB01BC0186E2C2
:103B50009FE00E946A4D2091DB023091DC0240918F
:103B6000DD025091DE026091D50C7091D60C8091EF
:103B7000D70C9091D80C0E94E779AB01BC0182E28E
:103B80009FE00E946A4D4091D90C5091DA0C6091EF
:103B9000DB0C7091DC0C8EE19FE00E946A4D8091FD
:103BA0006F00982F927081FF05C080916F008D7F0C
:103BB00080936F00409078025090790260907A0272
:103BC00070907B0280907C0290907D02A0907E029B
:103BD000B0907F02C0908002D0908102E09082027B
:103BE000F0908302992329F080916F008260809386
:103BF0006F00E4E1FFE08491EF012196882319F042
:103C0000B4DCFE01F8CFC301B2011BDFE0E1FFE04D
:103C10008491EF012196882319F0A7DCFE01F8CFEB
:103C2000C501B4010EDFECE0FFE08491EF012196C5
:103C3000882319F09ADCFE01F8CFC701B60101DF35
:103C40008AE0DF91CF91FF90EF90DF90CF90BF900F
:103C5000AF909F908F907F906F905F904F9085CCAA
:103C60002F923F924F925F926F927F928F929F928C
:103C7000AF92BF92CF92DF92EF92FF920F931F937A
:103C8000CF93DF93CDB7DEB762970FB6F894DEBF60
:103C90000FBECDBF8DE690E098DE811161C18091AD
:103CA000A10C83FD5DC183E5D5DB8C87811105C047
:103CB00082E5D0DB89838823A1F04CDB0E942B7B3B
:103CC000CB010E948D3646DB20E030E04AEA52E428
:103CD0000E94D37518160CF43EC10E941D5921E0B4
:103CE00029830E94BD4E4981442309F439C181E0F2
:103CF000809314021A821B821C821D8218861986E8
:103D00001A861B8619821D865CE35E878CE18F878D
:103D100096E4988B312C212CA0E8A98BBFEBBA8BB1
:103D2000812C912C54016091FE057091FF05072EA6
:103D3000000C880B990B0E94D9757B018C019B01AB
:103D4000AC01632D722D89899A890E94D3758823CD
:103D500029F120918D0630918E0640918F06509169
:103D600090068C85B70181110CC0C8010E94D375E3
:103D7000881F8827881F89833E2C2F2C098B1A8B3C
:103D80000DC0C8010E94D37587FF03C08091140243
:103D9000E7C03E2C2F2C098B1A8B19820E94245BC2
:103DA0006B017C01DC01CB01288539854A855B8567
:103DB000821B930BA40BB50BB7FD37C0D701C6010F
:103DC00088519C4FAF4FBF4F88879987AA87BB8781
:103DD0000E941233E8E0FFE084913F019FEF691AEF
:103DE000790A882319F0C1DBF301F6CF811491041D
:103DF000A104B104B1F0D501C401805F984DAF4F6B
:103E0000BF4FBC01CD016C197D098E099F0928EEB9
:103E100033E040E050E00E94AB79CA01B90111DE05
:103E200002C08FE3A2DB8AE0A0DBF9D40E94245B0E
:103E300060939E0270939F028093A0029093A102D0
:103E4000A0918D06AE83B0918E06BF8300918F0640
:103E5000109190069D01A801632D722D89899A8980
:103E60000E94E6792B013C0120E030E0A9010E948C
:103E70000D7C87FF04C077FA709477F870948114F2
:103E80009104A104B10459F420E030E040E85FE37C
:103E9000C301B2010E94D37587FF0DC00AC020E0A4
:103EA00030E040E450E4C301B2010E940D7C1816DA
:103EB00014F44601570129812223A9F18A819B81AB
:103EC000AC81BD81892B8A2B8B2B61F0D701C60178
:103ED0002A813B814C815D81821B930BA40BB50B26
:103EE000B7FD21C02E813F81A8016D857E858F851C
:103EF00098890E94E67920E030E040EC5FE30E9480
:103F0000D37587FD43CFD701C601805A9541AF4F86
:103F1000BF4F8A839B83AC83BD839E819D87AF8186
:103F2000AE870F87188B80911402882309F42ECF57
:103F300081149104A104B10409F4F5CEB0E1CB1AC7
:103F4000B7E2DB0AE108F108C818D908EA08FB085B
:103F5000F7FE1CCFE8CE0E94FC5831E03983C1CE79
:103F600062960FB6F894DEBF0FBECDBFDF91CF9142
:103F70001F910F91FF90EF90DF90CF90BF90AF9087
:103F80009F908F907F906F905F904F903F902F9079
:103F900008958F929F92AF92BF92CF92DF92EF924D
:103FA000FF92CF936B017C01B42E20E030E0A90199
:103FB0000E94D37587FF06C08DE2D7DAF7FAF09436
:103FC000F7F8F094C0E060E070E080E09FE3CB158C
:103FD00041F02DEC3CEC4CEC5DE30E943876CF5F79
:103FE000F6CF9B01AC01C701B6010E94E7796B01D6
:103FF0007C010E94307B4B015C014AE07BDCCC23DE
:1040000079F1C501B4010E94D7759B01AC01C701CC
:10401000B6010E94E6796B017C018EE2A6DA20E00F
:1040200030E040E251E4C701B6010E9438764B010E
:104030005C010E942B7B6B01770FEE08FF08C70124
:10404000B601FFDCC701B6010E94D9759B01AC0126
:10405000C501B4010E94E6796B017C01C150F9F6FB
:10406000CF91FF90EF90DF90CF90BF90AF909F9057
:104070008F900895CF93DF93AAD78BE576DAC4EDBE
:10408000D5E0688179818A819B8142E082DF4C8121
:104090005D816E817F8186EF9EE00E946A4D48853A
:1040A00059856A857B8583EF9EE00E946A4D8DE588
:1040B0005CDA8AE0DF91CF9158CA1F920F920FB657
:1040C0000F9211240BB60F922F938F939F93EF9320
:1040D000FF932091D305E091D20581E08E0F8F7779
:1040E0009091C600281729F0F0E0EE5AFA4F90831D
:1040F000E82FE093D205FF91EF919F918F912F913F
:104100000F900BBE0F900FBE0F901F9018954F92FF
:104110005F926F927F928F929F92AF92BF92DF9247
:10412000EF92FF920F931F93CF93DF93D82EC82F58
:10413000D0E0FE01E858FB4F64917E01EE0CFF1CBD
:10414000EE0CFF1CF701EA58FE4E45905590659025
:104150007490062E000C770B880B990B0E94D97572
:104160004B015C0120E030E040EC5FE3C301B201B1
:104170000E943876A50194010E943876AB01BC01FB
:1041800000E010E098018D2D16D8F701E659FE4E9B
:104190002591359145915491C501B4010E9438761D
:1041A0004B015C0120E030E0A9010E94D375882317
:1041B00009F445C000E010E09801B501A401705871
:1041C0008D2D0E94DB18FE01E959FE4E64916111AC
:1041D00015C0E0E6F8E18491EF012196882319F0FB
:1041E000C4D9FE01F8CFE5E4F1E18491EF01219615
:1041F000882319F0BAD9FE01F8CF6AE0F701E1513E
:10420000FE4F459055906590749070E080E090E08E
:104210000E94D9759B01AC01C301B2010E94C37A0F
:104220002B013C01A5019401C501B4010E94E7796D
:10423000AB01BC01930182018D2D0E94DB1881E04E
:1042400090E00D2C01C0880F0A94EAF79091A80223
:10425000982B9093A8029091C602892B8093C60256
:10426000F701E857FD4F10821182128213828D2DC3
:104270000E949118F701E25BFB4F85919591A59102
:10428000B491E701C353D34F88839983AA83BB8337
:104290000E94D118F701E454F34F88819981AA81D3
:1042A000BB8180839183A283B383DF91CF911F91E0
:1042B0000F91FF90EF90DF90BF90AF909F908F9005
:1042C0007F906F905F904F900895CF93DF938A58BF
:1042D0009F4FFC01C081D181862F0E943132BE01E7
:1042E00083E391E10E94874D8AE0DF91CF913DC940
:1042F0000C943945EF92FF920F931F93CF93DF9366
:104300001F921F92CDB7DEB782E08093C00010925B
:10431000C50087E08093C4008091C10080618093D4
:10432000C1008091C10088608093C1008091C1006C
:1043300080688093C100ECE2F1E184918F010F5F0E
:104340001F4F882319F011D9F801F7CFE0E6F8E103
:1043500084918F010F5F1F4F882319F006D9F80150
:10436000F7CF989AA09A9A9AA29A809107018062B0
:1043700080930701809108018095807280930601E7
:1043800080910701806180930701809108018095E9
:1043900080718093060114B710FF0CC0E3E2F1E1D5
:1043A00084917F019FEFE91AF90A882319F0DDD87B
:1043B000F701F6CF11FF0CC0E2E1F1E184917F013A
:1043C0009FEFE91AF90A882319F0CFD8F701F6CF41
:1043D00012FF0CC0E0E0F1E184917F019FEFE91A48
:1043E000F90A882319F0C1D8F701F6CF13FF0CC0E2
:1043F000EFEEF0E184917F019FEFE91AF90A88233B
:1044000019F0B3D8F701F6CF15FF0BC0EEEDF0E1D0
:1044100084918F010F5F1F4F882319F0A6D8F801F0
:10442000F7CF14BEE7EDF0E184918F010F5F1F4FCE
:10443000882319F09AD8F801F7CF80E296D8E9ECF2
:10444000F0E184918F010F5F1F4F882319F08DD801
:10445000F801F7CF8AE089D8E0E6F8E184918F018E
:104460000F5F1F4F882319F080D8F801F7CFE9EBD1
:10447000F0E184918F010F5F1F4F882319F075D8E9
:10448000F801F7CFEEEAF0E184918F010F5F1F4F43
:10449000882319F06AD8F801F7CFE8E5F0E18491B4
:1044A0008F010F5F1F4F882319F05FD8F801F7CFF6
:1044B000E0E6F8E184918F010F5F1F4F882319F028
:1044C00054D8F801F7CFE1E4F0E184918F010F5F58
:1044D0001F4F882319F049D8F801F7CFE0E6F8E13B
:1044E00084918F010F5F1F4F882319F03ED8F80188
:1044F000F7CF2091320F3091330FCE010196211565
:10450000310519F488539F4002C0821B930B9A8394
:10451000898369817A8182E390E10E94874D60E11D
:1045200076E08BE190E10E94874D8AE01ED881E021
:104530008093FC028093FD028093FE028093FF0231
:104540000E946C2F80E00E94E52B8CE0E7ECF2E00B
:10455000ADECBCE001900D928A95E1F70E94D11874
:104560006D9A9D9A809101018062809301018091F2
:10457000010188608093010187ED80937A00109299
:104580007E0010927D0080917E00816080937E008D
:1045900080917E00846080937E0080E888BD809159
:1045A0006E00846080936E006AEF70E080E090E0BF
:1045B0000E94EC5A85E090E09093F10C8093F00C0F
:1045C00060E080912002909121020E947E3220E0E2
:1045D00030E040EA50E40E94D37587FF0AC0809122
:1045E0002002909121024097909321028093200213
:1045F000E7CF83E191E0909326028093250260E06B
:104600008091F9059091FA050E947E3220E030E811
:1046100049E853E40E940D7C181654F48091F90582
:104620009091FA0540969093FA058093F905E7CFAB
:1046300080911E0290911F020E94B73620E030E068
:1046400040EA50E40E94D37587FF0AC080911E02A1
:1046500090911F02409790931F0280931E02E8CF13
:104660008091F7059091F8050E94B73620E030E080
:1046700040EA52E40E940D7C181654F48091F7052C
:104680009091F80540969093F8058093F705E8CF50
:104690000E94E15826982E9A25982D9A24982C9AB3
:1046A00054985C9A91E09093AE029093AD02809101
:1046B0000A01816080930A0180910A0182608093DF
:1046C0000A0180910A01846080930A0180910A01A5
:1046D000806480930A010F9A179A0E9A169A0D9A7F
:1046E000159A0C9A149A389A4098179A8091A802B1
:1046F0008E7F8093A802399A4198169A8091A802D9
:104700008D7F8093A8023A9A4298159A8091A802C8
:104710008B7F8093A8023B9A4398149A80918000E3
:104720008C7F8093800080918100877E8860809359
:104730008100809180008F73809380008091810040
:10474000887F82608093810020E030E4309389008C
:1047500020938800109285001092840080916F0051
:10476000826080936F009093AE0278940E94C74C51
:1047700098E288E10FB6F894A895809360000FBE88
:10478000909360000F900F90DF91CF911F910F9148
:10479000FF90EF900895179A8091A8028E7F8093E2
:1047A000A802169A8091A8028D7F8093A802159A7C
:1047B0008091A8028B7F8093A802149A0895E7E065
:1047C000FDE18491EF012196882321F00E94B51A22
:1047D000FE01F7CFEBEFFFE08491EF0121968823F4
:1047E00021F00E94B51AFE01F7CF0E949D36D3DF5B
:1047F0002FEF8BE49DE1215080409040E1F700C015
:104800000000F8942FEF84E39CE02150804090401A
:10481000E1F700C000000E949D36A895FECF2F92C0
:104820003F924F925F926F927F928F929F92AF9240
:10483000BF92CF92DF92EF92FF920F931F93CF938D
:10484000DF9300D01F92CDB7DEB70E94245B6B01CF
:104850007C0180910002882309F47BC080910503CC
:10486000882309F476C04091E1055091E2056091FA
:10487000E3057091E40597018601041B150B260BD7
:10488000370B37FD79C0833051F134F481300CF4AB
:1048900060C0E0E6F8E106C0843009F05AC0E0E606
:1048A000F8E13BC084918F010F5F1F4F1B830A8388
:1048B000882329F00E94B51AEA81FB81F3CFE6EA4A
:1048C000FFE084918F010F5F1F4F1B830A838823B2
:1048D00009F43FC00E94B51AEA81FB81F2CFE0E6FD
:1048E000F8E184918F010F5F1F4F1B830A83882398
:1048F00029F00E94B51AEA81FB81F3CFEFE8FFE0CF
:1049000084918F010F5F1F4F1B830A83882309F156
:104910000E94B51AEA81FB81F3CF84918F010F5F6A
:104920001F4F1B830A83882329F00E94B51AEA814E
:10493000FB81F3CFE7E7FFE084918F010F5F1F4F0B
:104940001B830A83882329F00E94B51AEA81FB8120
:10495000F3CF2091000230E0A8EEB3E00E94D779B7
:10496000C60ED71EE81EF91EC092E105D092E205E0
:10497000E092E305F092E40580918804843030F4FD
:104980000E94071C811102C00E94D51A0E94245B5C
:10499000C090A902D090AA02E090AB02F090AC02C5
:1049A000C114D104E104F10489F100919E02109137
:1049B0009F022091A0023091A1020C0D1D1D2E1D01
:1049C0003F1D6B017C01C01AD10AE20AF30AF7FC11
:1049D0001DC0E7E0FDE184918F010F5F1F4F1B8336
:1049E0000A83882329F00E94B51AEA81FB81F3CF5C
:1049F0006091BA0C7091BB0C81EC9FE00E94A04DBD
:104A00008AE00E94B51A88EB9FE0D9DEC0900102CF
:104A1000D0900202E0900302F0900402C114D1048D
:104A2000E104F104B1F130910C0F20910D0F321718
:104A300049F060939E0270939F028093A00290932E
:104A4000A10227C000919E0210919F022091A00216
:104A50003091A1020C0D1D1D2E1D3F1DDC01CB014F
:104A6000801B910BA20BB30BB7FD13C0179A80915B
:104A7000A8028E7F8093A802169A8091A8028D7F4B
:104A80008093A802159A8091A8028B7F8093A80238
:104A9000149A90910C0F80910D0F981306C060919D
:104AA000880610918A0619831DC0E0910D0F81E6DA
:104AB0008E9FF0011124E851F94F6081E0910D0FB4
:104AC0008E9FF0011124E651F94FC080C982809178
:104AD0000D0F80910D0F90910C0F981719F08F5FAB
:104AE0008F70F9CF70E088E00E94245AD9806D2D34
:104AF00070E086E00E94245A8091F605882309F42C
:104B0000F7C00091370210913802E0903902EC8230
:104B1000F0903A02FA826091FE057091FF056E5F97
:104B20007F4F072E000C880B990B0E94D9759801B6
:104B3000A7010E94D37587FDDBC0F0900D0F212CDB
:104B4000312CE12C198280910C0F8F1509F460C073
:104B50008F2D90E021E6289FF001299FF00D112470
:104B6000EF56F94F458956896789708D452B462B3D
:104B7000472B81F4418D528D638D748D452B462BCF
:104B8000472B41F4458D568D678D70A1452B462BE3
:104B9000472BC9F141E6489F9001499F300D1124F0
:104BA000C9018F56994F6C01FC016181728183812B
:104BB00094810E94527C4B015C01F60161A172A1BB
:104BC00083A194A10E94D7752B013C01F60165A138
:104BD00076A187A190A50E94D7759B01AC01C30166
:104BE000B2010E94C37AA50194010E9438765B014C
:104BF0006C0191014E2D59810E940D7C18161CF4F8
:104C00001501EC2CD98281E08F0D8F70F82E9BCF8F
:104C100020913B0230913C0240913D0250913E0276
:104C2000B1018E2D99810E94387698014C815A816C
:104C30000E94E7796B017C019B01AC01B8018C817A
:104C40009A810E940D7C1816B4F0009133021091E5
:104C50003402F0913502FC83209136022A839801B8
:104C60004F2F5A81B601C7010E940D7C18161CF007
:104C70008601EC82FA82C090E505D090E605E090CE
:104C8000E705F090E80598014C815A81C701B6010B
:104C90000E940D7C1816D4F420E037ED43EA5CE363
:104CA000B8018C819A810E9438764B015C0128E41E
:104CB00031EE4AE75FE3C701B6010E943876A501ED
:104CC00094010E94E7798B018C839A83C801AC819F
:104CD000BA818093E5059093E605A093E705B0932C
:104CE000E805B801CD010E942B7BCB010E948D36D7
:104CF0000E94E65180919D02882309F444C00E94DD
:104D0000245B0091990210919A0220919B023091AC
:104D10009C02DC01CB01801B910BA20BB30BB7FDF6
:104D200032C00E94245B6B017C0120919D0230E027
:104D3000A8EEB3E00E94D779C60ED71EE81EF91E72
:104D4000C0929902D0929A02E0929B02F0929C0249
:104D50000E9412338AE00F900F900F900F90DF9116
:104D6000CF911F910F91FF90EF90DF90CF90BF9068
:104D7000AF909F908F907F906F905F904F903F90FB
:104D80002F900C94B51A0F900F900F900F90DF9109
:104D9000CF911F910F91FF90EF90DF90CF90BF9038
:104DA000AF909F908F907F906F905F904F903F90CB
:104DB0002F9008958F929F92AF92BF92CF92DF92E1
:104DC000EF92FF920F931F93CF93DF93CDB7DEB790
:104DD00028970FB6F894DEBF0FBECDBF8091A10C0F
:104DE00083FDA5C0C090C80CD090C90CE090CA0C3F
:104DF000F090CB0C2091D90C3091DA0C4091DB0C67
:104E00005091DC0CC701B6010E94D375882309F4C8
:104E10008EC080918C06811131C060918D06709199
:104E20008E0680918F06909190060E942B7B209198
:104E30002B0230912C026217730704F5C092D90C33
:104E4000D092DA0CE092DB0CF092DC0CE0E6F8E1B8
:104E500084918F010F5F1F4F882321F00E94B51AA4
:104E6000F801F6CFECE5FFE084918F010F5F1F4F53
:104E7000882321F00E94B51AF801F6CF8090C80C63
:104E80009090C90CA090CA0CB090CB0C2091D90C7A
:104E90003091DA0C4091DB0C5091DC0CC501B4016F
:104EA0000E94E6796B017C0120E030E0A9010E94BC
:104EB0000D7C87FF04C0F7FAF094F7F8F094E091C6
:104EC000CC0C84E0E89FF0011124E95DFD4F2081C6
:104ED000318142815381C701B6010E94387620E0BA
:104EE00030E048E453E40E940D7C181604F58092EB
:104EF000D90C9092DA0CA092DB0CB092DC0CE0E6BC
:104F0000F8E184918F010F5F1F4F882321F00E94E9
:104F1000B51AF801F6CFEDE3FFE084918F010F5F42
:104F20001F4F882321F00E94B51AF801F6CF609137
:104F3000310270913202072E000C880B990B0E94EF
:104F4000D97520912D0230912E0240912F0250915F
:104F500030020E9438762AE037ED43E25CE30E949B
:104F600038766D837E838F839887E090CC0C19828E
:104F70001A821B821C82CE0101966C018E010B5F8E
:104F80001F4F28EC3CE044EC5CE060EC7CE08CEBF8
:104F90009CE00E946A3780E1ECEBFCE0ADECBCE009
:104FA00001900D928A95E1F728960FB6F894DEBF2E
:104FB0000FBECDBFDF91CF911F910F91FF90EF906A
:104FC000DF90CF90BF90AF909F908F900895CF9338
:104FD000DF9380E00E94B850C4EDD5E06883798308
:104FE0008A839B8381E00E94B8506C837D838E838B
:104FF0009F8382E00E94B850688779878A879B8761
:10500000DF91CF910895CF93DF938091D205809364
:10501000D305E4E3FFE08491EF012196882321F09A
:105020000E94B51AFE01F7CF8091210D9091220DBB
:10503000A091230DB091240DBC01CD016F5F7F4F76
:105040008F4F9F4F0E94211D8AE00E94B51AE09168
:105050008704F0E0E450FD4F8081882321F0DF9148
:10506000CF910C94D130DF91CF91089580916F0052
:10507000982F927081FF05C080916F008D7F809383
:105080006F0080910D0F80930C0F80930B0F809316
:105090000A0F84E68093090F28EE33E03093B30CB7
:1050A0002093B20C992329F080916F008260809345
:1050B0006F0081E08093E30C0E94A64F88DF8CE0B4
:1050C000E4EDF5E0ADECBCE001900D928A95E1F7DE
:1050D0000C94D1181F93CF93DF93182F611571058E
:1050E00019F4EDE0F4E10AC0FB018491EF0121968F
:1050F0008823B9F30E94B51AFE01F7CF8491EF011E
:105100002196882321F00E94B51AFE01F7CF1111D4
:1051100003C0E8E0F4E102C0EEEFF3E18491EF01B7
:105120002196882321F00E94B51AFE01F7CF8AE06C
:10513000DF91CF911F910C94B51ACF93DF93E5EDDA
:10514000F1E18491EF012196882321F00E94B51AA4
:10515000FE01F7CFDF91CF9108952F923F924F92AA
:105160005F926F927F928F929F92AF92BF92CF92F7
:10517000DF92EF92FF920F931F93CF93DF93CDB700
:10518000DEB76C970FB6F894DEBF0FBECDBF8C01B3
:105190005B015A834983FC01E95BFF4F2081318128
:1051A000428153812D8B3E8B4F8B588FCA01B901A1
:1051B0000E94D7756B017C01D5012D913D914D91D8
:1051C0005C910E9438760E94AD7A0E94307B6D8798
:1051D0007E878F87988BE981FA8120813181428196
:1051E0005381C701B6010E9438760E94AD7A0E94B1
:1051F000307B698B7A8B8B8B9C8B2D853E854F8585
:105200005889283731054105510540F448E750E0F9
:1052100060E070E04D875E876F87788B69897A8957
:105220008B899C89683771058105910540F488E771
:1052300090E0A0E0B0E0898B9A8BAB8BBC8BF8013F
:10524000ED5AFF4F20813181428153812D833E836E
:105250004F835887CA01B9010E94D9752B013C01BF
:105260006D857E858F8598890E94D77569877A8735
:105270008B879C8720E030E0A901C301B2010E9426
:10528000D375882329F1A7019601C701B6010E94B1
:1052900038764B015C0129853A854B855C85CA01CE
:1052A000B9010E9438769B01AC01C501B4010E948E
:1052B000E6794B015C01A3019201C301B2010E9496
:1052C000E7799B01AC01C501B4010E94C37A03C018
:1052D00060E070E0CB010E94AD7A0E94307B698370
:1052E0007A838B839C836D817E818F819885909555
:1052F0008095709561957F4F8F4F9F4F0E94D97514
:105300004B015C0169897A898B899C890E94D775D8
:105310006D837E838F83988720E030E0A901C501EB
:10532000B4010E94D375882349F12D813E814F81BC
:105330005885CA01B9010E943876698F7A8F8B8FA0
:105340009C8FA7019601C701B6010E9438769B0188
:10535000AC01698D7A8D8B8D9C8D0E94E6796B01F5
:105360007C01A5019401C501B4010E94E7799B016C
:10537000AC01C701B6010E94C37A03C060E070E0CF
:10538000CB010E945C7BD80195968D909D90AD904D
:10539000BC9098977501640129813A814B815C81A9
:1053A000C21AD30AE40AF50A0E94307BC61AD70A49
:1053B000E80AF90AF7FEA1C020E030E0A901C30124
:1053C000B2010E94D375882309F443C0C501B4011A
:1053D0000E94D7756B017C01A3019201C301B20148
:1053E0000E94E7799B01AC01C701B6010E943876A3
:1053F0006B017C0129853A854B855C85CA01B90121
:105400000E9438769B01AC01C701B6010E94E67983
:105410006B017C012D813E814F815885CA01B90104
:105420000E9438769B01AC01C701B6010E94E77962
:105430006B017C0120E030E040E850E4C301B201A0
:105440000E9438769B01AC01C701B6010E94C37A65
:1054500003C060E070E0CB010E94AD7A7B018D83D8
:10546000998320E030E0A9010E940D7C181624F0F9
:10547000E12CF12C1D821982B7018D8199810E9446
:10548000307B69837A838B839C8386169706A80674
:10549000B90620F489829A82AB82BC82A301920170
:1054A000C301B2010E94E7796B017C0169817A81B5
:1054B0008B819C810E94D7759B01AC01C701B6010D
:1054C0000E9438766B017C0129853A854B855C8585
:1054D000CA01B9010E9438769B01AC01C701B6012F
:1054E0000E94E7790E94527C0E94307B6D8B7E8BFC
:1054F0008F8B988FC12CD12C76016D897E898F89F5
:10550000988D2D853E854F855889621B730B840BC2
:10551000950B0E94D775A30192010E94C37A20E0E7
:1055200034E244EF59E40E9438760E94307B4B010C
:105530005C016D897E898F89988D29893A894B898B
:105540005C89621B730B840B950B0E94D775A301BA
:1055500092010E94C37A20E034E244EF59E40E94B1
:1055600038760E94307B2B013C013FE68316910484
:10557000A104B10480F4F401EE0FFF1FEE0FFF1F32
:10558000EE5BFB4E85919591A591B4918D83292E6B
:105590003A2EB98708C0C501B4010E94BB4D6D8386
:1055A000272E382E99874FE6441651046104710462
:1055B00070F4F201EE0FFF1FEE0FFF1FEE5BFB4ECC
:1055C00045915591659174919A01CB0105C0C30134
:1055D000B2010E94BB4D9B0149815A816B817C8144
:1055E000D8019A964D935D936D937C939D974C0D46
:1055F0005D1D6E1D7F1DF80146A757A760AB71ABFF
:10560000E55BFF4F4D855E856F85788940835183CB
:1056100062837383D6968D929D92AD92BC92D997F8
:10562000F80142AE53AE64AE75AEFE964D81408336
:105630002182328259855383349620833183828339
:1056400093836D897E898F89988DD2966D937D9392
:105650008D939C93D5973D9629893A894B895C898E
:1056600020833183428353836C960FB6F894DEBF58
:105670000FBECDBFDF91CF911F910F91FF90EF90A3
:10568000DF90CF90BF90AF909F908F907F906F9062
:105690005F904F903F902F9008958091E9051E995B
:1056A00002C0816001C08E7F8093E9058091E90589
:1056B0004C9902C0806101C08F7E8093E905809182
:1056C000E9051D9902C0826001C08D7F8093E905C4
:1056D0008091E9051C9902C0846001C08B7F809392
:1056E000E90580919A0480FF16C0909195048091FD
:1056F000E90590FF06C080FF0EC08091860481609E
:1057000005C084FF08C08091860480618093860470
:1057100080E00E94315980919A0481FF10C08091ED
:10572000950481FF0CC08091E90581FF08C080913C
:10573000860482608093860481E00E9431598091C2
:105740009A0482FF10C08091950482FF0CC0809162
:10575000E90582FF08C080918604846080938604F6
:1057600082E00C9431590895CF93DF93E8E2F4E19D
:105770008491882349F0C9E2D4E10E94B51AFE0160
:10578000849121968111F9CF83B1C1E086FB8827EE
:1057900080F962E274E18C279DDC89B18295817089
:1057A0006CE174E18C2796DC83B185FB882780F956
:1057B00066E174E18C278EDC83B18295817060E1B3
:1057C00074E18C27DF91CF9185CC0F931F93CF93FA
:1057D000C82F882319F0E3EFF3E10CC0E0E6F8E10D
:1057E00084918F010F5F1F4F8823A9F30E94B51A80
:1057F000F801F6CF84918F010F5F1F4F882321F0AE
:105800000E94B51AF801F6CFECEDF1E184918F0119
:105810000F5F1F4F882321F00E94B51AF801F6CFC1
:105820008AE00E94B51A8AE00E94B51AC1112CC004
:10583000E0E6F8E184918F010F5F1F4F882321F08C
:105840000E94B51AF801F6CFE0EEF3E184918F01E2
:105850000F5F1F4F882321F00E94B51AF801F6CF81
:105860008091B302882321F08AE00E94B51A3AC0E1
:10587000E5EDF3E184918F010F5F1F4F882391F1D4
:105880000E94B51AF801F6CF4091AF025091B002D4
:105890006091B1027091B2028CEC93E10E946A4D6A
:1058A0008AE00E94B51A8091B302811127C0CC23EF
:1058B00019F0E1ECF3E10CC0E0E6F8E184918F012E
:1058C0000F5F1F4F8823A9F30E94B51AF801F6CF86
:1058D00084918F010F5F1F4F882381F00E94B51ABA
:1058E000F801F6CFE0E6F8E184918F010F5F1F4FDA
:1058F000882351F20E94B51AF801F6CFC11124C0D5
:10590000E0E6F8E184918F010F5F1F4F882321F0BB
:105910000E94B51AF801F6CFE0EBF3E184918F0114
:105920000F5F1F4F882321F00E94B51AF801F6CFB0
:10593000E0E6F8E184918F010F5F1F4F882321F08B
:105940000E94B51AF801F6CF4091A20C5091A30C19
:105950006091A40C7091A50C88EA93E10E946A4DB5
:105960004091A60C5091A70C6091A80C7091A90CC5
:1059700085EA93E10E946A4D4091AA0C5091AB0CCC
:105980006091AC0C7091AD0C82EA93E10E946A4D7B
:105990004091AE0C5091AF0C6091B00C7091B10C75
:1059A0008FE993E10E946A4D8AE00E94B51AC11105
:1059B00024C0E0E6F8E184918F010F5F1F4F882338
:1059C00021F00E94B51AF801F6CFE1E8F3E18491E5
:1059D0008F010F5F1F4F882321F00E94B51AF80135
:1059E000F6CFE0E6F8E184918F010F5F1F4F882327
:1059F00021F00E94B51AF801F6CF40915C06509153
:105A00005D0660915E0670915F0688E793E10E94F3
:105A10006A4D4091600650916106609162067091F6
:105A2000630685E793E10E946A4D409164065091B8
:105A30006506609166067091670682E793E10E94B1
:105A40006A4D409168065091690660916A067091AE
:105A50006B068FE693E10E946A4D8AE00E94B51AB8
:105A6000C11124C0E0E6F8E184918F010F5F1F4F60
:105A7000882321F00E94B51AF801F6CFEDE4F3E196
:105A800084918F010F5F1F4F882321F00E94B51A68
:105A9000F801F6CFE0E6F8E184918F010F5F1F4F28
:105AA000882321F00E94B51AF801F6CF4091B40284
:105AB0005091B5026091B6027091B70284E493E10F
:105AC0000E944D4D4091B8025091B9026091BA02C6
:105AD0007091BB0281E493E10E944D4D4091BC0264
