:100000000C94800E0C94B10E0C94B10E0C94B10EA5
:100010000C94B10E0C94B10E0C94B10E0C94B10E64
:100020000C94B10E0C94B10E0C94B10E0C94B10E54
:100030000C94B10E0C94B10E0C94B10E0C94B10E44
:100040000C94B10E0C946C480C94B10E0C94B10E3F
:100050000C94B10E0C94B10E0C94E23B0C9412373C
:100060000C94B10E0C9417570C94B10E0C94B10E65
:100070000C94B10E0C94B10E0C94B10E0C94B10E04
:100080000C94B10E0C94B10E0C94B10E0C94B10EF4
:100090000C94B10E0C94B10E0C94B10E0C94B10EE4
:1000A0000C94B10E0C94B10E0C94B10E0C94B10ED4
:1000B0000C94B10E0C94B10E0C94B10E0C94B10EC4
:1000C0000C94B10E0C94B10E0C94B10E0C94B10EB4
:1000D0000C94B10E0C94B10E0C94B10E0C94B10EA4
:1000E0000C94B10EF735FC3501360B3615368E36CD
:1000F0001F3627362F36393643364D365C36663650
:100100008E3670367A368436A44FA74F964F9A4F64
:10011000A04FDE4FAB4FAF4FB54FB94FBD4FC34FA1
:10012000C74FCB4FDE4FD14FD54FD94F084AD73BA2
:100130003BCE016E84BCBFFDC12F3D6C74319ABDB6
:1001400056833DDA3D00C77F11BED9E4BB4C3E91DA
:100150006BAAAABE000000803F05A84CCDB2D44EC9
:10016000B93836A9020C50B9918688083CA6AAAACB
:100170002ABE000000803F004E414E494E4954596E
:10018000494E46CDCCCC3D0AD7233C17B7D1387762
:10019000CC2B329595E6241FB14F0A000020410078
:1001A00000C84200401C4620BCBE4CCA1B0E5AAEC2
:1001B000C59D74434F4D4D554E49434154494F4E93
:1001C0000044525952554E004552524F5253004925
:1001D0004E464F004543484F0020746F6F206C6FB0
:1001E0006E6720657874727573696F6E20707265C2
:1001F00076656E7465640A0020636F6C64206578B0
:1002000074727573696F6E2070726576656E746551
:10021000640A0047322F47332062616420706172A4
:10022000616D65746572730A002569730025696DD7
:1002300020256973002569682025696D202569736B
:1002400000256964202569682025696D202569736A
:100250000025697920256964202569682025696D54
:1002600020256973005072696E742074696D653A57
:100270002000D401CF01C801C101B3016F6666003F
:1002800044454255473A004B494C4C45442E2000CA
:100290004D3131332053006F6B0020573A00205707
:1002A0003A002C20002C2000544845524D414C5F10
:1002B00050524F54454354494F4E004155544F52AC
:1002C00045504F52545F53445F535441545553006B
:1002D000454D455247454E43595F50415253455253
:1002E00000434153455F4C494748545F4252494798
:1002F00048544E45535300544F47474C455F4C4973
:100300004748545300534F4654574152455F504F4E
:10031000574552004255494C445F50455243454E63
:1003200054004C4556454C494E475F4441544100AA
:100330005A5F50524F4245004155544F4C45564527
:100340004C005052494E545F4A4F420050524F4762
:1003500052455353004155544F5245504F52545FEC
:1003600054454D5000564F4C554D4554524943004D
:10037000454550524F4D0053455249414C5F584FEF
:100380004E5F584F4646004649524D574152455FD1
:100390004E414D453A4D61726C696E2062756766DB
:1003A00069782D312E312E7820284769746875625E
:1003B0002920534F555243455F434F44455F5552A3
:1003C0004C3A68747470733A2F2F67697468756259
:1003D0002E636F6D2F4D61726C696E4669726D7719
:1003E0006172652F4D61726C696E2050524F544F8F
:1003F000434F4C5F56455253494F4E3A312E3020B1
:100400004D414348494E455F545950453A33442085
:100410005072696E74657220455854525544455265
:100420005F434F554E543A3120555549443A636520
:100430006465326132662D343161322D343734389F
:100440002D396231322D63353563363266333637B6
:1004500066660A002F2F20002054002052004163BE
:1004600063656C65726174696F6E3A205000206636
:10047000697273740A005A0059005800486F6D651C
:100480002000546F6F206661722066726F6D20725B
:1004900065666572656E636520706F696E740A00CB
:1004A000205A00205900580020204D61783A200041
:1004B000205A00205900580020204D696E3A200033
:1004C0004F666600536F667420656E6473746F7058
:1004D000733A200020466C6F773A200000012531E6
:1004E0001D0C51FFFF2924301C0BFFFFFF27232F7A
:1004F0001B0AFFFFFFFF43FFFF040806FFFF222B3D
:100500001AFFFF42043803FF3620643A0020693A9C
:100510000020703A00496E76616C696420657874D9
:1005200072756465720A0043290A0061626C656431
:1005300020286D696E2074656D702000436F6C64B7
:10054000206578747275646573206172652000237C
:10055000646566696E652044454641554C545F4B61
:1005600064200023646566696E65204445464155F4
:100570004C545F4B69200023646566696E652044B6
:10058000454641554C545F4B702000504944204132
:1005900075746F74756E652066696E6973686564DD
:1005A000212050757420746865206C617374204B31
:1005B000702C204B6920616E64204B6420636F6E49
:1005C0007374616E74732066726F6D2062656C6FF8
:1005D0007720696E746F20436F6E6669677572610C
:1005E00074696F6E2E680A00504944204175746F1B
:1005F00074756E65206661696C6564212074696D2F
:10060000656F75740A00453120544845524D414C80
:100610002052554E4157415900546865726D616CC6
:100620002052756E617761790045312048656174AB
:10063000696E67206661696C65640048656174690C
:100640006E67206661696C6564005049442041759D
:10065000746F74756E65206661696C6564212054E1
:10066000656D706572617475726520746F6F206856
:100670006967680A00204B643A2000204B693A20E1
:1006800000204B703A20000A20436C617373696349
:1006900020504944200A002054753A2000204B7510
:1006A0003A2000206D61783A2000206D696E3A2072
:1006B0000020643A200020626961733A20005049AA
:1006C00044204175746F74756E65206661696C6550
:1006D00064212054656D7065726174757265207453
:1006E0006F6F20686967680A00504944204175743B
:1006F0006F74756E652073746172740A005049449A
:10070000204175746F74756E65206661696C6564EF
:100710002120426164206578747275646572206E70
:10072000756D6265720A004E6F2063617365206C9F
:10073000696768740A00454550524F4D20646973DB
:1007400061626C65640A004163746976652045786E
:100750007472756465723A2000496E76616C6964E2
:100760002065787472756465720A00526573656EEF
:10077000643A20006F6B00627573793A207061757E
:1007800073656420666F7220696E7075740A00620A
:100790007573793A2070617573656420666F722095
:1007A000757365720A00627573793A2070726F63AF
:1007B000657373696E670A004B494C4C45442E20A3
:1007C000004B494C4C20636175736564206279204D
:1007D000746F6F206D75636820696E6163746976EC
:1007E000652074696D65202D2063757272656E7465
:1007F00020636F6D6D616E643A20005072696E7493
:1008000065722068616C7465642E206B696C6C285D
:10081000292063616C6C6564210A0020647269762A
:1008200065722063757272656E743A200000000074
:100830000000000000000000000000A0400000A038
:10084000400000A040000000005761726E696E67B2
:100850003A20486F6D696E672042756D702044695B
:100860007669736F72203C20310A00020204000096
:10087000803F00000000000000400000A042000097
:10088000484300004843FFFFFF48617264636F64A0
:1008900065642044656661756C7420536574746981
:1008A0006E6773204C6F616465640A00320000005B
:1008B0003200000032000000320000000000204141
:1008C0000000204100002041000020410000484479
:1008D00000004844000048440000484420204D39AE
:1008E00030360020286D6D2900205430204500202E
:1008F0005A002059002058005374657070657220AA
:100900006472697665722063757272656E743A0AF4
:100910000020440020490020204D33303120500079
:100920005049442073657474696E67733A0A0020F5
:100930005A0020590020204D323036205800486F90
:100940006D65206F66667365743A0A002045002065
:100950005A00205900205800205400205300202025
:100960004D32303520510020453C6D61785F655F28
:100970006A65726B3E0020583C6D61785F785F6AF3
:1009800065726B3E20593C6D61785F795F6A657274
:100990006B3E205A3C6D61785F7A5F6A65726B3E90
:1009A00000416476616E6365643A20513C6D696E06
:1009B0005F7365676D656E745F74696D655F757390
:1009C0003E20533C6D696E5F666565647261746557
:1009D0003E20543C6D696E5F74726176656C5F6633
:1009E000656564726174653E0020540020520020E9
:1009F000204D323034205000416363656C65726174
:100A000074696F6E2028756E6974732F7332293A7A
:100A100020503C7072696E745F616363656C3E2048
:100A2000523C726574726163745F616363656C3EAE
:100A300020543C74726176656C5F616363656C3EE3
:100A40000A00204500205A0020590020204D323055
:100A5000312058004D6178696D756D204163636583
:100A60006C65726174696F6E2028756E6974732F7E
:100A70007332293A0A00204500205A0020590020EC
:100A8000204D3230332058004D6178696D756D20EE
:100A90006665656472617465732028756E69747328
:100AA0002F73293A0A00204500205A0020590020BF
:100AB000204D393220580053746570732070657270
:100AC00020756E69743A0A0020204D32303020447F
:100AD000300A0020204D3230302044002044697319
:100AE00061626C65640A0046696C616D656E7420B4
:100AF00073657474696E67733A0020204732312041
:100B00002020203B0010001900F03F190045340060
:100B10004533004532004531004530005A32005916
:100B200032005832005A00590058004531205448CC
:100B300045524D414C2052554E4157415900424576
:100B40004420544845524D414C2052554E41574146
:100B50005900546865726D616C2052756E617761E1
:100B600079004531204572723A204D415854454D27
:100B700050004572723A204D415854454D50204224
:100B80004544004D415854454D5020747269676783
:100B900065726564004531204572723A204D494EB8
:100BA00054454D50004572723A204D494E54454DC2
:100BB0005020424544004D494E54454D50207472DA
:100BC0006967676572656400202F002042403A0023
:100BD00020403A00290B270B250B220B1F0B1C0B67
:100BE000190B160B130B100B0D0B74727565006649
:100BF000616C7365002074656D70657261747572E7
:100C000065207072657761726E20747269676765BE
:100C10007265643A2000207072657761726E20669A
:100C20006C616720636C65617265640A0024F4D4AA
:100C30003050C38E20C2A24017828B7011127A915D
:100C40000D816CD90AA861E108C758660761514354
:100C5000061E4B5D05C145A7041A411104093D98C4
:100C600003713931034036DB0265339102D43054CD
:100C700002802E1D02632CEE01752AC501B028A04A
:100C800001102781018F2564012B244B01E02234C0
:100C900001AC211F018D200D01801FFC00841EED81
:100CA00000971DDF00B81CD200E61BC600201BBC4D
:100CB00000641AB200B219A8000A19A0006A1899B3
:100CC00000D117910040178B00B516840031167EB5
:100CD00000B31579003A157300C7146F0058146AF1
:100CE00000EE1366008813630025135E00C7125BD5
:100CF000006C12570015125400C111510070114FB1
:100D00000021114B00D61049008D104700461044B9
:100D10000002104200C00F4000800F3E00420F3C16
:100D200000060F3B00CB0E3800930E37005C0E35EB
:100D300000270E3400F30D3200C10D3100900D304C
:100D400000600D2E00320D2D00050D2C00D90C2B4E
:100D500000AE0C2900850C29005C0C2700350C27FF
:100D6000000E0C2600E80B2400C40B2400A00B236B
:100D7000007D0B23005A0B2100390B2100180B209A
:100D800000F80A1F00D90A1E00BB0A1E009D0A1D9A
:100D900000800A1D00630A1C00470A1B002C0A1B66
:100DA00000110A1A00F7091A00DD091900C409190F
:100DB00000AB091900920917007B09180063091795
:100DC000004C09160036091600200916000A0915FC
:100DD00000F5081500E0081400CC081400B8081449
:100DE00000A4081400900813007D0812006B08137B
:100DF0000058081200460812003408110023081198
:100E0000001208110001081100F0071000E007109F
:100E100000D0071000C0071000B0070F00A1071096
:100E20000091070E0083070F0074070F0065070E7F
:100E30000057070E0049070E003B070D002E070E56
:100E40000020070D0013070D0006070D00F9060C22
:100E500000ED060D00E0060C00D4060C00C8060CE0
:100E600000BC060C00B0060C00A4060B0099060C92
:100E7000008D060B0082060B0077060B006C060B3C
:100E80000061060A0057060B004C060A0042060ADB
:100E90000038060A002E060A0024060A001A060A6E
:100EA000001006090007060A00FD050900F40509FF
:100EB00000EB050900E2050900D9050900D0050984
:100EC00000C7050900BE050900B5050800AD050805
:100ED00000A50509009C050800940508008C05087C
:100EE00000840508007C050800740508006C0507EF
:100EF00000650508005D050700560508004E05075A
:100F000000470507004005080038050700310507C0
:100F1000002A050700230507001C05060016050723
:100F2000000F0507000805060002050700FB040680
:100F300000F5040700EE040600E8040600E20407DA
:100F400000DB040600D5040600CF040600C9040631
:100F500000C3040600BD040600B7040600B1040582
:100F600000AC040600A6040600A00405009B0406CD
:100F70000095040500900406008A04050085040518
:100F800000800406007A040500750405007004055D
:100F9000006B04050066040500610405005C04059F
:100FA0000057040500520405004D040500480405DF
:100FB00000430405003E0404003A0405003504051E
:100FC00000300404002C0405002704040023040559
:100FD000001E0404001A0404001604050011040491
:100FE000000D0404000904050004040400000404C6
:100FF00000FC030400F8030400F4030400F00304FD
:1010000000EC030400E8030400E4030400E003042C
:1010100000DC030400D8030400D4030400D003045C
:1010200000CC030400C8030300C503030024F40438
:10103000D9201BC40C5C0E9804C4095F02650771BB
:1010400001F405F900FB04B30048048700C10369FB
:10105000005803550003034500BE023A00840231E4
:101060000053022A002902250004022000E4011C8A
:1010700000C8011900AF0117009801140084011382
:1010800000710110006101100051010E0043010DBB
:101090000036010B002B010B0020010B001501098C
:1010A000000C01090003010800FB000800F3000820
:1010B00000EB000700E4000600DE000600D8000692
:1010C00000D2000600CC000500C7000500C20005E4
:1010D00000BD000400B9000400B5000400B1000424
:1010E00000AD000400A9000400A5000300A2000355
:1010F000009F0004009B000300980003009500027D
:101100000093000300900003008D0002008B000399
:1011100000880002008600020084000300810002B3
:10112000007F0002007D0002007B000200790002C7
:1011300000770001007600020074000200720001D6
:1011400000710002006F0002006D0001006C0002DF
:10115000006A0001006900020067000100660001EA
:1011600000650001006400020062000100610001EE
:1011700000600001005F0002005D0001005C0001F2
:10118000005B0001005A00010059000100580001F5
:1011900000570001005600010055000100540001F5
:1011A00000530000005300010052000100510001F3
:1011B00000500001004F0001004E0000004E0001F1
:1011C000004D0001004C0001004B0000004B0001ED
:1011D000004A0001004900010048000000480001E9
:1011E00000470001004600000046000100450000E5
:1011F00000450001004400010043000000430001DD
:1012000000420000004200010041000000410001D6
:1012100000400001003F0000003F0001003E0000D0
:10122000003E0001003D0000003D0001003C0000C8
:10123000003C0000003C0001003B0000003B0001BE
:10124000003A0000003A00010039000000390001B6
:1012500000380000003800000038000100370000AE
:1012600000370001003600000036000000360001A3
:10127000003500000035000000350001003400009A
:10128000003400000034000100330000003300008F
:101290000033000100320000003200000032000183
:1012A000003100000031000000310001003000007A
:1012B0000030000000300001002F0000002F00006F
:1012C000002F0000002F0001002E0000002E000063
:1012D000002E0001002D0000002D0000002D000058
:1012E000002D0001002C0000002C0000002C00004C
:1012F000002C0001002B0000002B0000002B000040
:10130000002B0001002A0000002A0000002A000033
:10131000002A000100290000002900000029000027
:10132000002900000029000100280000002800001A
:10133000002800000028000000280001002700000D
:101340000027000000270000002700000027000100
:1013500000260000002600000026000000260000F5
:1013600000260001002500000025000000250000E7
:1013700000250000002500000025000100240000D9
:1013800000240000002400000024000000240001CC
:1013900000230000002300000023000000230000C1
:1013A00000230000002300000023000100220000B1
:1013B00000220000002200000022000000220000A5
:1013C0000022000100210000002100000021000097
:1013D0000021000000210000002100000021000188
:1013E000002000000020000000200000002000007D
:1013F000002000000020000000200000002000016C
:10140000001F0000001F0000001F0000001F000060
:10141000001F0000001F0000001F0001001E000050
:10142000001E0000001E0000001E000000393000F9
:10143000003325000087190000B00F0000DB080012
:1014400000BD040000740200003F01000054524936
:10145000474745524544006F70656E003A20007A58
:101460005F6D696E00795F6D696E00785F6D6178A0
:1014700000785F6D696E005265706F7274696E6797
:1014800020656E6473746F70207374617475730A71
:1014900000FFFDFCFAF8F6F4F2F0EEECEAE9E7E51D
:1014A000E3E1E0DEDCDAD9D7D5D4D2D0CFCDCBCAD8
:1014B000C8C7C5C3C2C0BFBDBCBAB9B7B6B4B3B262
:1014C000B0AFADACAAA9A8A6A5A4A2A1A09E9D9CC0
:1014D0009A99989795949392908F8E8D8B8A8988FC
:1014E000878684838281807F7E7D7B7A7978777618
:1014F0007574737271706F6E6D6C6B6A6968676614
:101500006564636261605F5E5D5C5B5A5958585701
:1015100056555453525150504F4E4D4C4B4A4A49D8
:1015200048474646454443424241403F3E3E3D3C9B
:101530003B3B3A393838373635353433323231304F
:10154000302F2E2E2D2C2B2B2A29292827272625F4
:101550002524232322212120201F1E1E1D1C1C1B8D
:101560001B1A191918181716161515141313121219
:101570001111100F0F0E0E0D0D0C0C0B0A0A09099C
:101580000808070706060505040403030202010014
:1015900000000000010000000100008000555555CA
:1015A000000000400033333300AAAA2A00499224E5
:1015B0000000002000C7711C0099991900D145173F
:1015C00000555515003BB1130024491200111111AB
:1015D00000000010000F0F0F00E3380E0043790DDC
:1015E00000CCCC0C00C3300C00E8A20B0064210B33
:1015F00000AAAA0A00703D0A009DD80900427B0992
:101600000092240900DCD3080088880800104208F2
:101610000000000800F0C107008787070075500729
:1016200000711C07003EEB0600A1BC060069900695
:101630000066660600703E06006118060017F40595
:101640000074D105005BB00500B290050062720520
:10165000005555050078390500B81E05000505053B
:10166000004EEC040087D40400A1BD040090A70440
:101670000049920400C17D0400EE690400C75604CD
:1016800000444404005C32040008210400411004BA
:1016900000000004003FF00300F8E0030026D2033E
:1016A00000C3C30300CCB503003AA803000A9B03A0
:1016B00000388E0300C08103009F750300D06903CA
:1016C00000505E03001D53030034480300913D03A6
:1016D000003333030016290300381F030097150356
:1016E00000300C0300030303000BFA020049F1026F
:1016F00000BAE802005CE002002DD802002DD00202
:101700000059C80200B0C0020031B90200DAB102CB
:1017100000AAAA0200A0A30200BC9C0200FA950243
:10172000005C8F0200DF88020082820200457C029A
:10173000002776020027700200436A02007C6402E0
:1017400000D05E02003F590200C853020000002191
:1017500000240027002A002D003000330001010082
:1017600000040107010A0100000A0B02090C0D0E1A
:101770000807030401000000000000000000000052
:101780000000000000000000000000000000000059
:101790000000001211100000000000000000000016
:1017A0000000000000000000000000000000000039
:1017B000000000000000000000000000004B494C49
:1017C0004C45442E2000202D20496E76616C6964C2
:1017D000206578747275646572206E756D626572CD
:1017E00020210A002020506C616E6E657242756681
:1017F00066657242797465733A20002046726565A9
:10180000204D656D6F72793A2000436F6D70696C81
:1018100065643A204A756E20313320323031390AFE
:1018200000207C20417574686F723A203230313963
:101830002D30362D31332D4C756D656E580A0032C2
:101840003031382D30372D333100204C6173742006
:10185000557064617465643A2000627567666978E2
:101860002D312E312E780A004D61726C696E002088
:10187000536F6674776172652052657365740A00F0
:10188000205761746368646F672052657365740ADA
:10189000002042726F776E206F75742052657365F9
:1018A000740A002045787465726E616C205265730D
:1018B00065740A00506F77657255700A0073746121
:1018C00072740A00205A3A0020593A0020583A000F
:1018D000656E6473746F7073206869743A20006574
:1018E0006E7175657565696E672022004C696E655D
:1018F000204E756D626572206973206E6F74204C86
:10190000617374204C696E65204E756D6265722B33
:10191000312C204C617374204C696E653A20004B69
:10192000494C4C45442E20005072696E74657220FB
:1019300073746F707065642064756520746F2065C2
:1019400072726F72732E2046697820746865206504
:1019500072726F7220616E6420757365204D393923
:101960003920746F20726573746172742E2028544C
:10197000656D70657261747572652069732072653A
:101980007365742E205365742069742061667465D4
:10199000722072657374617274696E67290A004EF1
:1019A0006F20436865636B73756D20776974682079
:1019B0006C696E65206E756D6265722C204C61736A
:1019C00074204C696E653A2000636865636B7375BB
:1019D0006D206D69736D617463682C204C61737444
:1019E000204C696E653A20004D3131300020496E3F
:1019F00076616C6964206578747275646572200024
:101A00000000000000000000000000000000A042F4
:101A10000000484300004843486F6D696E672066C8
:101A200061696C65640050726F74656374656420ED
:101A300050696E0A00205A3A0020593A0020436F3C
:101A4000756E7420583A0020453A00205A3A00201A
:101A5000593A00583A003A004361703A0020746FD6
:101A60006F206C6F6E6720657874727573696F6E26
:101A70002070726576656E7465640A0020636F6C11
:101A80006420657874727573696F6E207072657604
:101A9000656E7465640A006563686F3A00556E6B25
:101AA0006E6F776E20636F6D6D616E643A202200F9
:101AB000000020002300260029002C002F00320007
:101AC00000010000030106010901000022002500B9
:101AD00028002B002E003100340002010000050117
:101AE00008010B010505050507050808080802029D
:101AF00002020A0A080804040404010101010101A8
:101B000001010303030303030303040707070C0C8A
:101B10000C0C0C0C0C0C0202020206060606060651
:101B200006060B0B0B0B0B0B0B0B07070A0A0A0A1B
:101B30000A0A05050504040408080102102020080B
:101B40000810204010204080020102010804020118
:101B50000102040810204080804020100804020187
:101B600080040201804020100804020108040201E0
:101B70000102040810204080010204081020408067
:101B80001008040880102040044080102040048089
:101B90006265640A002C2073797374656D20737418
:101BA0006F7070656421204865617465725F494497
:101BB0003A20004265642068656174696E6720663A
:101BC00061696C65640048656174696E672066616F
:101BD000696C65640045312048656174696E6720F1
:101BE0006661696C65640048656174696E6720664A
:101BF00061696C65640070012C0190012701B001DE
:101C00002201C0011D01F001180110021301300270
:101C10000E016002090190020401C002FF000003EE
:101C2000FA004003F5008003F000D003EB0020042D
:101C3000E6007004E100E004DC004005D700C005C8
:101C4000D2004006CD00D006C8008007C30030088F
:101C5000BE00F008B900C009B400B00AAF00B00B74
:101C6000AA00D00CA500000EA000500F9B00C010D1
:101C700096005012910000148C00C0158700B01718
:101C80008200B0197D00D01B7800001E7300402038
:101C90006E0090226900F024640040275F009029C4
:101CA0005A00E02B5500102E500020304B0010320F
:101CB0004600E033410090353C0010373700703863
:101CC0003200A0392D00B03A2800A03B2300603C30
:101CD0001E00103D1900903D1400103E0F00703E94
:101CE0000A00C03E0500003F0000403FFBFF803F70
:101CF000F6FFC03FF1FF4572726F723A0000FF714C
:101D000011241FBECFEFD1E2DEBFCDBF00E00CBF7C
:101D100012E0A0E0B2E0E0E8FBEF00E00BBF02C0A1
:101D200007900D92AA35B107D9F72FE0AAE5B2E0E6
:101D300001C01D92A534B207E1F71EE0C0E8DEE065
:101D400000E006C021970109802FFE010E94837DDB
:101D5000CF37D10780E00807A9F70E94096D0C94DE
:101D6000BE7D0C9400002F923F924F925F926F9233
:101D70007F928F929F92AF92BF92CF92DF92EF921B
:101D8000FF920F931F93CF93DF93CDB7DEB7C15868
:101D9000D1090FB6F894DEBF0FBECDBF21E020936E
:101DA0000C0380913E048D3409F4A1C7843511F4ED
:101DB0000C946927873411F00C94AC2780913C0473
:101DC00090913D048430910509F43CC544F497FD9D
:101DD0008AC720913E028230910524F51EC08A35C3
:101DE000910509F4C2C624F44C9709F460C57BC779
:101DF0008B35910509F4BDC68C35910509F073C783
:101E0000FFE32F2EF2E03F2EAAE1CA2EA3E0DA2E46
:101E1000E12CF12C00E010E0E9C621110C94B3276D
:101E20000C94AE27222311F40C94AE2711E00297F4
:101E300009F010E00E94C35282E50E94B752882345
:101E400009F42AC10E943D526B017C0140900804B4
:101E50005090090460900A0470900B0480910C0467
:101E600090910D04A0910E04B0910F048AA39BA33E
:101E7000ACA3BDA3209127033091280340912903EF
:101E800050912A032EA33FA348A759A780912B0363
:101E900090912C03A0912D03B0912E038AA79BA7AC
:101EA000ACA7BDA720E030E0A901C701B6010E94A0
:101EB0008E76882309F4ACC4A30192016EA17FA1A0
:101EC00088A599A50E948E7681110DC02AA13BA1FB
:101ED0004CA15DA16AA57BA58CA59DA50E948E76CF
:101EE000882309F495C420E030E0A901C701B601B8
:101EF0000E948E76881F8827881F181309C020E04B
:101F000030E040E85FE32AAF3BAF4CAF5DAF08C0C5
:101F100080E090E0A0E8BFEB8AAF9BAFACAFBDAF75
:101F2000A30192016EA17FA188A599A50E948E7A36
:101F30006AAB7BAB8CAB9DAB2AA13BA14CA15DA155
:101F40006AA57BA58CA59DA50E948E7A6EAB7FAB02
:101F500088AF99AF2AA93BA94CA95DA9CA01B901CB
:101F60000E94F3764B015C012EA93FA948AD59AD03
:101F7000CA01B9010E94F3769B01AC01C501B4010D
:101F80000E948F7A0E94FA7C6EA77FA788AB99ABDC
:101F900020E030E040E05FE30E94F3764B015C011B
:101FA000A7019601C701B6010E94F3766B017C017F
:101FB000A5019401C501B4010E94F3769B01AC0117
:101FC000C701B6010E948E7A0E94FA7C9B01AC0187
:101FD0006AAD7BAD8CAD9DAD0E94F3764B015C018B
:101FE0002EA13FA148A559A5C301B2010E948F7A35
:101FF00020E030E040E05FE30E94F3766B017C017B
:102000006EA97FA988AD99AD90582EA53FA548A986
:1020100059A90E946B7B9B01AC01C501B4010E94D0
:10202000F3769B01AC01C701B6010E948F7AA30130
:1020300092010E948E7A6B017C012AA53BA54CA5DA
:102040005DA56AA17BA18CA19DA10E948F7A20E051
:1020500030E040E05FE30E94F3762B013C012EA5C7
:102060003FA548A959A96AA97BA98CA99DA90E9445
:102070006B7B9B01AC01C501B4010E94F3769B010F
:10208000AC01C301B2010E948F7A2AA13BA14CA1ED
:102090005DA10E948E7A14C089E40E94B752882301
:1020A00029F00E943D526B017C0103C0C12CD12C50
:1020B00076018AE40E94B7528823D9F00E943D52EB
:1020C0006AA77BA78CA79DA720E030E0A901C701E4
:1020D000B6010E948E7681111AC020E030E0A9017D
:1020E0006AA57BA58CA59DA50E948E7681110FC047
:1020F0008FC320E030E0A901C701B6010E948E76AF
:10210000882309F485C31AA61BA61CA61DA6A70131
:10211000960150582AA33BA34CA35DA38AA59BA577
:10212000ACA5BDA5B0588EA39FA3A8A7B9A7CA0107
:10213000B9010E94F3764B015C012EA13FA148A595
:1021400059A5CA01B9010E94F3769B01AC01C501F2
:10215000B4010E948F7A0E94FA7C2A966CAF7DAF00
:102160008EAF9FAF2A9720910804309109044091C7
:102170000A0450910B042EA73FA748AB59ABA70107
:1021800096016EA57FA588A999A90E948F7A6AAF4A
:102190007BAF8CAF9DAF80910C0490910D04A0910A
:1021A0000E04B0910F048AAB9BABACABBDAB2AA5C0
:1021B0003BA54CA55DA5BC01CD010E948F7A2E9652
:1021C0006CAF7DAF8EAF9FAF2E97209127033091DC
:1021D00028034091290350912A032EAB3FAB48AF0F
:1021E00059AF2AAD3BAD4CAD5DAD6EA97FA988ADB1
:1021F00099AD0E948E7A6B017C0180912B039091A6
:102200002C03A0912D03B0912E0322968CAF9DAF8D
:10221000AEAFBFAF22972E962CAD3DAD4EAD5FADAC
:102220002E97BC01CD010E948E7A4B015C0120915A
:102230001004309111044091120450911304269619
:102240002CAF3DAF4EAF5FAF269760912F037091DB
:10225000300380913103909132030E948E7A2B01DA
:102260003C018091330390913403A0913503B091E8
:10227000360366968CAF9DAFAEAFBFAF6697209129
:10228000140430911504409116045091170462967D
:102290002CAF3DAF4EAF5FAF6297A70196016AA129
:1022A0007BA18CA19DA10E94F3766A966CAF7DAF55
:1022B0008EAF9FAF6A97A50194016EA17FA188A5FB
:1022C00099A50E94F3769B01AC016A966CAD7DAD39
:1022D0008EAD9FAD6A970E948F7A6A966CAF7DAF84
:1022E0008EAF9FAF6A97A50194016AA17BA18CA1D3
:1022F0009DA10E94F3764B015C01A70196016EA19E
:102300007FA188A599A50E94F3769B01AC01C50128
:10231000B4010E948E7A6A962CAD3DAD4EAD5FAD94
:102320006A970E94027B6B017C0120E030E0A901EA
:102330000E948E7687FF0AC02BED3FE049EC50E407
:10234000C701B6010E948F7A6B017C01112351F005
:102350002BED3FE049EC50E4C701B6010E948E7AB4
:102360006B017C0120E030E0A901C701B6010E94A9
:102370008E76811122C02EA93FA948AD59AD6EA518
:102380007FA588A999A90E948E76811116C02296F0
:102390002CAD3DAD4EAD5FAD22976AA97BA98CA94E
:1023A0009DA90E948E76811108C00BEDC02E0FE012
:1023B000D02E09ECE02E00E4F02EA70196012A961B
:1023C0006CAD7DAD8EAD9FAD2A970E94F3764B012B
:1023D0005C0120E030E0A901C301B2010E948E76C9
:1023E0008823C9F0A5019401C501B4010E94F376C8
:1023F0004B015C01A3019201C301B2010E94F3767B
:102400009B01AC01C501B4010E948F7A0E94FA7C45
:102410004B015C010DC020E030E0A901C501B40111
:102420000E94B57C87FF04C0B7FAB094B7F8B094A7
:102430002FE632E143E85AE3C501B4010E948E76EB
:1024400087FF02C00C94AE27C501B4010E94047C32
:102450000E94D87B1B01672B19F422242394312C72
:10246000B10180E090E00E9492764B015C019B01FB
:10247000AC01C701B6010E946B7B6EA77FA788AB3A
:1024800099ABA5019401C301B2010E946B7B2A960E
:102490006CAF7DAF8EAF9FAF2A9762962CAD3DADEE
:1024A0004EAD5FAD629766966CAD7DAD8EAD9FAD66
:1024B00066970E948E7AA50194010E946B7B6696B6
:1024C0006CAF7DAF8EAF9FAF66972EA53FA548A995
:1024D00059A9CA01B9010E94F37620E030E040E03A
:1024E0005FE30E94F3769B01AC0160E070E080E85E
:1024F0009FE30E948E7A22966CAF7DAF8EAF9FAF26
:10250000229726968CAD9DADAEADBFAD269789873F
:102510009A87AB87BC8762962CAD3DAD4EAD5FAD63
:1025200062972D873E874F87588B6091100270917C
:102530001102072E000C880B990B0E9494762091B3
:1025400000023091010240910202509103020E9468
:10255000F3762AE037ED43E25CE30E94F3766E8F78
:102560007F8F88A399A30E9406379B01AC01285353
:102570003F4F4F4F5F4F26962CAF3DAF4EAF5FAFF3
:1025800026974AA05BA06CA07DA041E050E05FAB25
:102590004EAB59E15AAB2EA93FA92215330509F4D8
:1025A00010C10E944F6A0E940637DC01CB012696BB
:1025B0002CAD3DAD4EAD5FAD2697821B930BA40BAA
:1025C000B50BB7FD10C00E9406379B01AC01285324
:1025D0003F4F4F4F5F4F26962CAF3DAF4EAF5FAF93
:1025E00026970E9462323AA931503AAB332309F45C
:1025F00041C022962CAD3DAD4EAD5FAD22976EA190
:102600007FA188A599A50E94F3766B017C012EA578
:102610003FA548A959A9B201C3010E94F376A701B9
:1026200096010E948F7A7B018C0122962CAD3DADE4
:102630004EAD5FAD2297B201C3010E94F3764B010C
:102640005C012EA53FA548A959A96EA17FA188A527
:1026500099A50E94F3769B01AC01C501B4010E94CB
:102660008E7A2B013C01C701D8018EA39FA3A8A796
:10267000B9A751C04EA95FA9BA0180E090E00E94BD
:1026800092762EA53FA548A959A90E94F3764B0141
:102690005C010E94687B6B017C01C501B4010E9452
:1026A000F07C4B015C01A70196016AA17BA18CA182
:1026B0009DA10E94F3762B013C01A50194016AA51E
:1026C0007BA58CA59DA50E94F3769B01AC01C3015F
:1026D000B2010E948F7A2B013C01A50194016AA1ED
:1026E0007BA18CA19DA10E94F3764B015C01A70107
:1026F00096016AA57BA58CA59DA50E94F3769B01FA
:10270000AC01C501B4010E948E7A6EA37FA388A795
:1027100099A759E15AAB9201A3016AAD7BAD8CAD8B
:102720009DAD0E948F7A69837A838B839C832EA1CF
:102730003FA148A559A52E966CAD7DAD8EAD9FAD40
:102740002E970E948F7A6D837E838F8398872A9637
:102750002CAD3DAD4EAD5FAD2A9769857A858B85F1
:102760009C850E948F7A69877A878B879C8766967B
:102770002CAD3DAD4EAD5FAD66976D857E858F8589
:1027800098890E948F7A6D877E878F87988BE090DB
:1027900072021E8A1F8A188E198ECE0146966C010F
:1027A0008E01025E1F4F9E01235F3F4FAE01475FC8
:1027B0005F4FBE016B5F7F4F45970E94415781116C
:1027C00021C0E09072021A8E1B8E1C8E1D8EDE01BF
:1027D0005A966D018E01025E1F4F23E333E04FE2F4
:1027E00053E06BE273E087E293E00E94415780E19F
:1027F000E7E2F3E0A8E0B4E001900D928A95E1F7FA
:102800000C94AE27EEA9FFA93196FFABEEABC3CE79
:10281000E6EFFCE184918F010F5F1F4F882321F0C9
:102820000E944353F801F6CFE3E1F2E084918F0177
:102830000F5F1F4F882311F40C94AE270E9443535F
:10284000F801F4CF80E50E94B752882329F00E9456
:10285000FD516B017C0103C0C12CD12C760183E5B5
:102860000E94B752882361F00E943D5220E030E080
:102870004AE754E40E94F3760E94D87B6B017C0106
:102880000E94C74A0E940637C60ED71EE81EF91ED0
:102890000E940637DC01CB018C199D09AE09BF09E6
:1028A000B7FD02C00C94AE270E946232F1CF809136
:1028B000FB038770873071F48FE40E94B75288233E
:1028C00019F00E942E5203C08FE40E9470528111B1
:1028D0000C94AE270E94C74A809100029091010299
:1028E000A0910202B091030280937A0290937B023E
:1028F000A0937C02B0937D0280911002909111020E
:10290000909379028093780284E690E0909311028C
:102910008093100211E01093FA0388E50E94705230
:10292000282E89E50E947052082F8AE50E94705275
:10293000382E211004C0011104C0182705C0011150
:1029400002C010E001C0182F80E1E8E0F4E0A7E247
:10295000B3E001900D928A95E1F782E50E94B752AB
:10296000882369F00E943D526B017C0120E030E039
:10297000A9010E948E76882309F4BFC006C0C12C2D
:10298000D12CB0EAEB2EB0E4FB2E111105C02110C2
:1029900003C0002309F4C2C0C0922F03D0923003B9
:1029A000E0923103F0923203809010049090110471
:1029B000A0901204B0901304A5019401C701B601C0
:1029C0000E94B57C18160CF098C080910C04909170
:1029D0000D04A0910E04B0910F048AA39BA3ACA395
:1029E000BDA3209108043091090440910A0450913C
:1029F0000B042EA33FA348A759A7809100029091F2
:102A00000102A0910202B09103028AA79BA7ACA782
:102A1000BDA7E1E4F8E04590559065907490A7015A
:102A20009601C501B4010E948E7687FF12C04092C4
:102A30000002509201026092020270920302C09260
:102A40001004D0921104E0921204F09213040E9438
:102A5000B95085E595E5A5E0B3E480930002909335
:102A60000102A0930202B09303022EA13FA148A548
:102A700059A5209308043093090440930A04509305
:102A80000B048AA19BA1ACA1BDA180930C049093DF
:102A90000D04A0930E04B0930F040E94B950A70137
:102AA000960160911004709111048091120490912C
:102AB00013040E94B57C181694F4409200025092C0
:102AC00001026092020270920302C0921004D0923E
:102AD0001104E0921204F09213040E94B9500E9473
:102AE000C74A2AA53BA54CA55DA5209300023093BB
:102AF00001024093020250930302111105C02110FC
:102B000003C0011106C00AC080E00E9428311123D1
:102B1000C1F381E00E942831111102C0332019F065
:102B200082E00E9428310E9424518091F903809311
:102B3000FA0380917A0290917B02A0917C02B0917D
:102B40007D028093000290930102A0930202B09351
:102B50000302809178029091790290931102809300
:102B600010020E94E2550C94AE27109277020C944A
:102B7000AE27209377020C94AE270E943D522B0182
:102B80003C01133059F0F701E65AFD4F20813181A5
:102B9000428153810E948E7A2B013C01F701E85F4C
:102BA000FB4F2081318142815381C301B2010E94D8
:102BB0008E7A4B015C012DEB37E346E855EB0E9422
:102BC000B57C87FD1BC02DEB37E346E855E3C50117
:102BD000B4010E948E7618168CF01F5FB4E0CB0E05
:102BE000D11CE4E0EE0EF11C143039F1D1018D91CD
:102BF0001D010E94B752882381F3BFCF133051F4D7
:102C000040921404509215046092160470921704B6
:102C100001E0E3CFA5019401F60160817181828119
:102C200093810E948F7AD6016D937D938D939C93AF
:102C30001397812F0E94E450D0CF002309F44FC096
:102C400020E030E0A9016091140470911504809196
:102C50001604909117040E948F7A2091CB0C30912A
:102C6000CC0C4091CD0C5091CE0C0E94F3760E947A
:102C7000C07C60933B0F70933C0F80933D0F90930B
:102C80003E0F9091190F80911A0F981719F00E941A
:102C9000694A25C00E94C74A80916F0081FB99272D
:102CA00090F981FF05C080916F008D7F80936F0048
:102CB00040913B0F50913C0F60913D0F70913E0F42
:102CC0004093F40C5093F50C6093F60C7093F70C52
:102CD000992329F080916F00826080936F000E9499
:102CE000E2550C94AE270E94D3670C94AE278091D6
:102CF0003C0490913D048937910509F473C70CF0A9
:102D00008EC08936910509F443C30CF04BC08D3455
:102D1000910509F458C2CCF48F31910509F447C1EB
:102D20004CF48131910509F43CC1429709F495C5F1
:102D30000C9466278B34910509F42CC20CF02EC23A
:102D40008A9709F4D7C10C9466278435910509F454
:102D500084C5D4F48235910509F476C50CF078C5A4
:102D60008135910511F00C9466270E94993D0E94CF
:102D7000DA4B1092A6061092A5061092A8061092A1
:102D8000A70600E010E049C58C35910509F4B5C5EA
:102D90008836910509F41BC28535910511F00C9414
:102DA000662790C58037910509F4C2C2B4F48C3609
:102DB000910509F4B9C254F48A36910509F4EEC4B8
:102DC0008B36910509F411C50C9466278E36910552
:102DD00009F426C20CF41EC336C28537910511F4DE
:102DE0000C94AE2774F48237910509F40FC60CF4E5
:102DF000A3C28337910511F00C946627E7E8F3E04E
:102E000043C68737910509F4E2C60CF0E4C6009189
:102E10003A0410913B0483E0D12C40E097C68E32F7
:102E2000F1E09F0711F40C94A0220CF04AC08C3CF6
:102E3000910509F467C7ECF48E3B910509F499C438
:102E400054F48C38910509F476C48B39910509F452
:102E5000BAC20C946627893C910509F411C78B3CD2
:102E6000910509F430C7883C910511F00C94662750
:102E7000BFC68C3D910511F40C94592184F48E3C0D
:102E8000910511F40C94671F0CF4B4C7833D9105B0
:102E900011F00C946627E7E9FAE10C949720823E42
:102EA000910511F40C94D4218D3231E0930711F483
:102EB0000C94FF218D3D910511F00C9466270C9424
:102EC0006621853F41E0940711F40C946A265CF575
:102ED0008039A1E09A0711F40C944E267CF48F32CD
:102EE000E1E09E0711F40C94F4228336914011F036
:102EF0000C946627E6EFFCE10C9437268C3A21E02F
:102F0000920711F40C948A1F843F31E0930711F467
:102F10000C9451268A39914011F00C9466270E9436
:102F20002D510C94AE278B3853E0950711F40C9477
:102F3000AE2784F4873FB1E09B0711F40C9472260E
:102F400014F40C946F268A38934011F40C947D2667
:102F50000C946627803923E0920711F40C94DE2646
:102F6000873E33E0930711F40C9453278F38934036
:102F700011F00C9466276091A20E80E00E946739E0
:102F80006091290E81E00E9467396091B00D82E066
:102F90000E9467396091370D86E00E9467390C9472
:102FA000AE2717981698159814980C94AE270E947F
:102FB000AB6BECE3CE2ED12CE12CF12CA7019601CA
:102FC0000E94537A762E672ECA01B901A701960195
:102FD0000E94537A6B017C01CA01B90128E130E0FB
:102FE00040E050E00E94537A4B015C01C9016DE65C
:102FF00071E00E94537D8E010F5F1F4F61157105B7
:1030000099F06F927F92DF92CF929F928F929F93CF
:103010008F937F936F9381E592E09F938F931F939C
:103020000F930E945F7626C0009789F06F927F927F
:10303000DF92CF929F928F929F938F9381E492E041
:103040009F938F931F930F930E945F7613C08114F9
:103050009104A104B104B1F06F927F92DF92CF92FC
:103060009F928F9285E392E09F938F931F930F938C
:103070000E945F760FB6F894DEBF0FBECDBFE7E9C2
:10308000FAE123C0C114D104E104F10469F06F92A4
:103090007F92DF92CF928DE292E09F938F931F9366
:1030A0000F930E945F76E6CF6F927F9289E292E063
:1030B0009F938F931F930F930E945F760F900F90B3
:1030C0000F900F900F900F90DACF84917F013FEF18
:1030D000E31AF30A882321F00E944353F701F5CF46
:1030E000B80185E692E00E94D7498AE00E944353E6
:1030F0000C94AE2783E50E94B752882311F40C94F8
:10310000AE270E941D52E82E80E50E94B752882308
:1031100039F00E941D52182F87FF03C00C94AE2770
:103120001DE089E40E94B752882349F00E942E5284
:10313000811111C0ECEDF4E08DE28E0F07C089E43F
:103140000E947052F5CF31968E1729F09491191381
:10315000FACF0C94432A61E0812F0E9436506E2DE5
:10316000812F0E940750F12CB701812F0E94CE358C
:10317000163051F0183011F00C94AE27F092A606DC
:10318000E092A5060C94AE27F092A806E092A7065E
:103190000C94AE270E94DF6B0C94AE278091F8034D
:1031A000813011F00C94AE2782E08093F8030E94E6
:1031B00006376093F0037093F1038093F2039093CA
:1031C000F3030C94AE270E94186C0C94AE2788E68B
:1031D00090E00E944D5581110C94AE278091BE0C59
:1031E00083FF02C00C94AE2783E50E94B752882368
:1031F00099F00E943D520E94D37BCB010E94C76C84
:103200000E943D5220E030E04AEA52E40E948E766D
:10321000181614F00E94186C0E94D96C0C94AE27FA
:103220008EE40E94B752882311F40C94AE270E94BA
:103230000D5260932E0D70932F0D8093300D90934F
:10324000310D0C94AE2783E50E947052882359F00B
:1032500083E50E94B752882319F00E941D5201C0D5
:1032600080E08093BE0CE7E9FAE184918F010F5F63
:103270001F4F882321F00E944353F801F6CFE0E866
:10328000F2E084918F010F5F1F4F882321F00E948D
:103290004353F801F6CF8091BE0C8823A1F162E779
:1032A000C62E62E0D62EE12CF12C20E08091BE0CDF
:1032B00090E00E2C02C0959587950A94E2F780FF66
:1032C00017C0BB24B394B20E222319F08CE20E94E3
:1032D0004353F60125913491F901849189010F5FDF
:1032E0001F4F882321F00E9443539801F5CF2B2DC7
:1032F000FFEFEF1AFF0A32E0C30ED11C45E0E416DF
:10330000F104A1F60CC0ECE7F2E084918F010F5FAD
:103310001F4F882321F00E944353F801F6CF8AE023
:103320000E9443530C94AE27109212020C94AE27C5
:1033300087E892E00E94323283E50E94B7528823E8
:1033400069F00E941D528D3320F4809313020C9477
:10335000AE278CE3809313020C94AE27E7E9FAE1E1
:1033600084918F010F5F1F4F882321F00E944353E8
:10337000F801F6CF4091130250E060E070E080E980
:1033800092E00E9484498AE00E9443530C94AE2745
:1033900089E690E00E944D55811111C0E7E9F2E005
:1033A00084918F010F5F1F4F882321F00E944353A8
:1033B000F801F6CF0E94293A8AE00E944353109206
:1033C0000C030C94132C83E50E94B752882311F44C
:1033D0000C94AE270E941D52182F8D3308F01CE369
:1033E000109319030E9406376B017C01212F30E0F6
:1033F000A8EEB3E00E947F7AC60ED71EE81EF91E23
:10340000C0921503D0921603E0921703F0921803AE
:103410000C94AE278DE690E00E944D5581110C94DE
:10342000AE278091BE0C83FF02C00C94AE2783E5CB
:103430000E94B7528AAF811105C082E50E94B7523F
:103440008823B1F00E943D520E94D37BCB010E94A1
:10345000C76C0E943D5220E030E04AEA52E40E94EC
:103460008E76181614F40C949D280E94186C81E036
:10347000ED968FAFED970E94D96CED968FADED97DD
:10348000882311F40C94AE2781E0809312021EA2CF
:103490001FA218A619A62E961CAE1DAE1EAE1FAEFC
:1034A0002E971AA21EAE5CE323965FAF23978CE1A2
:1034B0002F968FAF2F9796E427969FAF2797C12C13
:1034C000D12C40E8E42E5FEBF52E812C912C540199
:1034D0006091560370915703072E000C880B990BCF
:1034E0000E949476162F072F782E692E262F372FBD
:1034F000482F592FB601C7010E948E768823D9F034
:103500002091AA063091AB064091AC065091AD06D1
:10351000612F702F872D962D0E948E76881F882709
:10352000881F8AA3AAADAA2351F0882341F0809175
:1035300012020C94AE271C2D0D2D7E2C6F2C0E9498
:1035400006376B017C01DC01CB012E962CAD3DAD25
:103550004EAD5FAD2E97821B930BA40BB50BB7FD41
:103560003DC0D701C60188519C4FAF4FBF4F2E962B
:103570008CAF9DAFAEAFBFAF2E970E94293AEAE95C
:10358000F2E084912F019FEF491A590A882321F014
:103590000E944353F201F5CF81149104A104B104B8
:1035A000B9F0D501C401805F984DAF4FBF4FBC014A
:1035B000CD016C197D098E099F0928EE33E040E0AA
:1035C00050E00E94537ACA01B9010E94895503C094
:1035D0008FE30E9443538AE00E9443530E94623269
:1035E0000E94063760930D0370930E0380930F03C0
:1035F00090931003A091AA06AAA7B091AB06BEA70C
:10360000E091AC06EAABF091AD06FEAB9D01AF01D7
:10361000612F702F872D962D0E948E7A1B012C0111
:1036200020E030E0A9010E94B57C87FF04C057FA72
:10363000509457F8509481149104A104B10459F4A2
:1036400020E030E040E85FE3C201B1010E948E76E5
:1036500087FF0DC00AC020E030E040E450E4C20122
:10366000B1010E94B57C181614F4460157012AA135
:10367000222309F444C08EA19FA1A8A5B9A5892B36
:103680008A2B8B2B61F0D701C6012EA13FA148A543
:1036900059A5821B930BA40BB50BB7FD30C02AA50F
:1036A0003EA54AA95EA96EAD23967FAD23972F96BE
:1036B0008FAD2F9727969FAD27970E948E7A20E097
:1036C00030E040EC5FE30E948E7687FD30CFD7017B
:1036D000C601805A9541AF4FBF4F8EA39FA3A8A7A5
:1036E000B9A79AA59EAFAEA52396AFAF2397BAA967
:1036F0002F96BFAF2F97EEA92796EFAF2797809110
:103700001202882309F413CF81149104A104B10497
:1037100029F4C12ED02EE72CF62CDACEF0E1CF1A08
:10372000F7E2DF0AE108F108C818D908EA08FB083F
:10373000F7FEFDCEEECF8091BE0C83FF02C00C944D
:10374000AE2783E50E94B752882311F40C94AE276C
:103750000E943D520E94D37B6134710514F061E4F4
:1037600070E070935503609354030E94053D0C94E0
:10377000AE278091BE0C83FF02C00C94AE2783E578
:103780000E94B7528AAF81110C94A12882E50E9451
:10379000B75281110C94A1280C94AE2780E50E94A9
:1037A000B752882341F00E941D52182F823010F02A
:1037B0000C94AE2701C010E083E50E94B752882325
:1037C00019F00E940D5202C06FEF70E0E12FF0E09F
:1037D0006F3F710510F06FEF70E0EE0FFF1FEB55BC
:1037E000F94F718360830C94AE2780E50E94B75235
:1037F000882341F00E940D526230710510F00C9444
:10380000AE2702C060E070E0660F771FFB01EB554A
:10381000F94F118210820C94AE2762E370E080E0D1
:1038200090E00E9497360E944F6A0F5F1F4F03314E
:10383000110599F762E370E080E090E00E9497360E
:103840000E944F6A0C94AE27109276020C94AE2719
:1038500081E0809376020C94AE2783E50E94B752F4
:103860008823A1F00E943D5220E030E04AE754E472
:103870000E94F3760E94D87B609314027093150225
:1038800080931602909317020C94AE2788E50E944D
:10389000705281110C94182A89E50E94705281118E
:1038A0000C94182A8AE50E94705281110C94182AEF
:1038B00085E40E94705281110C94182A0E94DA4B00
:1038C0000C94AE2783E50E947052882311F40C9467
:1038D000AE270E943D5220E030E04AE754E40E94C7
:1038E000F3760E94D87B6093110370931203809348
:1038F0001303909314030C94AE271FE3C12E12E020
:10390000D12E0FEBE02E0CE0F02E10E0D6018D91C1
:103910006D010E947052882309F46DC0133009F0C4
:1039200063C00E943D524B015C0120E030E040EA60
:1039300051E40E948E7687FF4EC0A50194016091EC
:10394000CB0C7091CC0C8091CD0C9091CE0C0E9440
:103950006B7B2B013C019B01AC0160915506709182
:10396000560680915706909158060E94F376609310
:103970005506709356068093570690935806A301F8
:1039800092016091850670918606809187069091DC
:1039900088060E94F376609385067093860680936E
:1039A00087069093880660916506709166068091FF
:1039B0006706909168060E949276A30192010E9488
:1039C000F3760E94D87B60936506709366068093B9
:1039D0006706909368068092CB0C9092CC0CA092D4
:1039E000CD0CB092CE0C07C00E943D52F70160830F
:1039F0007183828393831F5FF4E0EF0EF11C143018
:103A000009F084CF0E94B04B0C94AE270E94C74AA5
:103A100083E50E94B752882309F461C90E940D52C0
:103A20006230710509F05BC90E9421358BE50E9467
:103A300043536091000370910103809102039091C0
:103A4000030342E00E94A6564091040350910503EF
:103A5000609106037091070385EA92E00E94A149F4
:103A6000409108035091090360910A0370910B0380
:103A700082EA92E00E94A1498DE50E9443538AE0C8
:103A80000E9443530C94AE2784918F010F5F1F4F08
:103A9000882321F00E944353F801F6CF60E087E7C6
:103AA00093E00E94A35560E080E793E00E94A35555
:103AB00061E085E693E00E94A35561E085E593E02F
:103AC0000E94A35560E08CE493E00E94A35561E05E
:103AD00082E493E00E94A35560E088E393E00E94B3
:103AE000A35560E080E393E00E94A35560E082E28A
:103AF00093E00E94A35560E084E193E00E94A35507
:103B000060E085E093E00E94A35560E087EF92E0DB
:103B10000E94A35560E081EE92E00E94A35560E010
:103B200080ED92E00E94A35560E08BEB92E00E9452
:103B3000A35561E088EA92E00E94A3550C94AE2759
:103B4000D8019C91292F2B7F213419F08150C1F786
:103B500017C011962C912133C9F7913421F0953477
:103B600021F441E002C0DD24D39498012E5F3F4F41
:103B700089012F5F3F4FF80190819032C9F3E6CF62
:103B8000442369F0E7E9FAE184917F012FEFE21A1B
:103B9000F20A882321F00E944353F701F5CFDD207C
:103BA00069F0E4E5F4E084917F013FEFE31AF30A62
:103BB000882321F00E944353F701F5CFD8018D915E
:103BC0008D01882309F4ABCB0E944353F7CF0E94A9
:103BD000594F0C94AE2781E08093FA038093F90348
:103BE0000C94AE271092FA031092F9030C94AE27AE
:103BF00088EC90E00E944D5581110C94AE2784E42E
:103C00000E9470528823C1F10E943D5211E020E0D1
:103C100030E0A9010E948E76811101C010E010935E
:103C2000C703112349F10E943D52E0914F03B4E0D4
:103C3000EB9FF0011124E453FC4F60837183828376
:103C4000938320E030E0A9016091CC037091CD0313
:103C50008091CE039091CF030E948E7681110CC08B
:103C600080E090E0A0E4B0E48093CC039093CD0397
:103C7000A093CE03B093CF030E94184C0C94AE27B0
:103C8000A0EDEA2EA3E0FA2E0FE312E0B4E0DB2E63
:103C9000D00EF80181918F010E947052882351F05B
:103CA0000E943D520E94D87BD7016D937D938D93E6
:103CB0009C931397B4E0EB0EF11CD012EACF0E9454
:103CC000FF490C94AE27E9E7EE2EE6E0FE2E0FE367
:103CD00012E0F4E0DF2ED00EF80181918F010E94F6
:103CE0007052882341F00E943D52D7016D937D931D
:103CF0008D939C931397B4E0EB0EF11CD012ECCF94
:103D00000C94AE2783E50E94B7528823A1F00E944D
:103D10003D52609371067093720680937306909380
:103D2000740660936D0670936E0680936F06909391
:103D3000700610E001C011E080E50E94B7528823B0
:103D400059F00E943D526093710670937206809301
:103D500073069093740610E082E50E94B7528823A0
:103D600059F00E943D5260937506709376068093D9
:103D700077069093780610E084E50E94B752882376
:103D800061F00E943D5260936D0670936E068093C1
:103D90006F06909370060C94AE27112311F40C94C7
:103DA000AE27409171065091720660917306709132
:103DB00074068EE594E00E94A149409175065091E9
:103DC000760660917706709178068BE594E00E9404
:103DD000A14940916D0650916E0660916F067091F9
:103DE000700688E594E00E94A1498AE00E9443534E
:103DF0000C94AE2781E50E947052882351F00E94F6
:103E0000FD516093890670938A0680938B06909388
:103E10008C0683E50E947052882351F00E943D5227
:103E20006093A1067093A2068093A3069093A406C4
:103E300084E50E947052882351F00E943D526093A5
:103E40009D0670939E0680939F069093A00688E53A
:103E50000E947052882351F00E943D52609349069F
:103E600070934A0680934B0690934C0689E50E9416
:103E70007052882351F00E943D5260934D0670931A
:103E80004E0680934F06909350068AE50E9470522A
:103E9000882351F00E943D52609351067093520660
:103EA000809353069093540685E40E9470528823B1
:103EB00011F40C94AE270E943D5260935506709306
:103EC000560680935706909358060C94AE276FE3DE
:103ED000C62E62E0D62E7CEFE72E73E0F72E10E0C0
:103EE000F60181916F010E947052882359F00E945F
:103EF0003D52D7016D937D938D939C931397812FA2
:103F00000E94E4501F5FB4E0EB0EF11C133041F748
:103F10000C946F1680912603982F917011E0D92E82
:103F2000D12681FB002700F9012782FB882780F931
:103F30001827D11002C0002319F0E7E9FAE114C0F4
:103F40001111FBCF5DE2852E58E0952E88E094E0BC
:103F50009BA38AA3DE0111965D0106E818E01D010E
:103F6000B3E0B00FBEA352C084917F012FEFE21ADD
:103F7000F20A882321F00E944353F701F5CFECE7C2
:103F8000F4E084917F013FEFE31AF30A882321F0E4
:103F90000E944353F701F5CFDD2069F0EAE7F4E032
:103FA00084917F014FEFE41AF40A882321F00E94E4
:103FB0004353F701F5CF002369F0E8E7F4E084917B
:103FC0007F015FEFE51AF50A882321F00E94435331
:103FD000F701F5CF111103C0EEE6F4E00CC0E6E7FF
:103FE000F4E084918F010F5F1F4F8823A9F30E9493
:103FF0004353F801F6CF84918F010F5F1F4F882341
:1040000009F4ACC70E944353F801F5CFF401659160
:10401000759185919491EAA1FBA1C190D190E19015
:10402000F190FBA3EAA3A70196010E948E7A2B01CF
:104030003C0120E030E040EA51EC0E94B57C87FD75
:1040400011C020E030E040EA51E4C301B2010E9417
:104050008E7618163CF0D1014D925D926D927C9255
:1040600013970EC0F80184911816ACF7F7FAF09484
:10407000F7F8F094D101CD92DD92ED92FC92139776
:10408000D101CD90DD90ED90FD901D0120E030E05C
:1040900040EA51ECC701B6010E94B57C87FF03C01E
:1040A000E6EFFCE10BC020E030E040EA51E4C7015C
:1040B000B6010E948E761816C4F4F2CF84918F0157
:1040C0000F5F1F4F882321F00E944353F801F6CF62
:1040D000E2E8F4E084918F010F5F1F4F882309F419
:1040E0003DC70E944353F801F5CFB4E08B0E911CFD
:1040F0000F5F1F4FEEA1E01389CF4CEFE42E43E09A
:10410000F42E10E0F50181919191A191B1915F019F
:10411000F70181939193A193B1937F01812F0E9425
:10412000E4501F5F133071F70E94E25517C7849166
:104130008F010F5F1F4F882321F00E944353F80126
:10414000F6CFE4ECF4E084918F010F5F1F4F8823DA
:1041500021F00E944353F801F6CFE0ECF4E08491A3
:104160008F010F5F1F4F882321F00E944353F801F6
:10417000F6CFE8EBF4E084918F010F5F1F4F8823A7
:1041800021F00E944353F801F6CF40905A0250901C
:104190005B0260905C0270905D022091660230913B
:1041A00067024091680250916902C301B2010E9406
:1041B0008F7AAB01BC0186EB94E00E94A14980900C
:1041C0005E0290905F02A0906002B0906102209128
:1041D0006A0230916B0240916C0250916D02C501F0
:1041E000B4010E948F7AAB01BC0183EB94E00E9482
:1041F000A149C0906202D0906302E0906402F09006
:10420000650220916E0230916F02409170025091D0
:104210007102C701B6010E948F7AAB01BC0180EB2D
:1042200094E00E94A149E8EAF4E084918F010F5FD5
:104230001F4F882321F00E944353F801F6CF2091AD
:104240000402309105024091060250910702C30119
:10425000B2010E948F7AAB01BC0186EA94E00E9411
:10426000A149209108023091090240910A0250911F
:104270000B02C501B4010E948F7AAB01BC0183EA35
:1042800094E00E94A14920910C0230910D024091CE
:104290000E0250910F02C701B6010E948F7AAB0146
:1042A000BC0180EA94E00E94A1498AE00E94435345
:1042B00055C683E50E94B752882309F44FC60E9471
:1042C0000D52709311026093100248C68DED90E07C
:1042D0000E944D55811142C683E50E94B752882342
:1042E000D9F100914F0310E00E940D52000F111FF1
:1042F000F801EC5DFD4F7183608380914F0390E086
:104300008C01000F111F000F111F9801285C3D4FF9
:104310007901880F991FFC01EC5DFD4F608171816F
:10432000072E000C880B990B0E9494762AE037ED3B
:1043300043E25CE30E94F376F801E853FC4F2081EE
:104340003181428153810E94F376D7016D937D9331
:104350008D939C93139702C6E7E9FAE184918F014C
:104360000F5F1F4F882321F00E944353F801F6CFBF
:1043700085E40E94435380914F03805D0E94435324
:10438000E0914F03F0E0EE0FFF1FEC5DFD4F608109
:10439000718184ED94E00E94BE4985E20E944353FE
:1043A0008AE00E944353DAC580E50E947052882358
:1043B00009F4D4C50E940D526B017C0183E50E9473
:1043C000B752882321F00E940D528B0102C00FEFDB
:1043D0001FEFC8010196039708F0C0C5D7FCBEC502
:1043E0009C2DECEDF4E08DE28E0F2491921711F4E8
:1043F0000C94432A31968E13F8CF0C94462A85E408
:104400000E94B752811110C080E50E94705288232B
:1044100091F00E943D526093FC0C7093FD0C8093D0
:10442000FE0C9093FF0C07C00E941D52882361F37D
:10443000E6EFFCE16EC089E40E947052882381F0AF
:104440000E943D522CEA35EC47E25EE30E94F3768F
:104450006093F80C7093F90C8093FA0C9093FB0C1A
:1044600084E40E947052882381F00E943D522CEA1D
:1044700035EC47E25EE30E946B7B6093000D709326
:10448000010D8093020D9093030DE7E9FAE1849109
:104490008F010F5F1F4F882321F00E944353F801C3
:1044A000F6CF4091FC0C5091FD0C6091FE0C709188
:1044B000FF0C81E195E00E94A1492CEA35EC47E22E
:1044C0005EE36091F80C7091F90C8091FA0C909178
:1044D000FB0C0E946B7BAB01BC018DE095E00E9460
:1044E000A1492CEA35EC47E25EE36091000D709142
:1044F000010D8091020D9091030D0E94F376AB01A6
:10450000BC0189E095E00E94A1498AE00E944353E2
:1045100025C584918F010F5F1F4F882321F00E94D2
:104520004353F801F6CFE5E1F5E084918F010F5F89
:104530001F4F882309F412C50E944353F801F5CF99
:1045400083E50E947052182F882371F00E943D521B
:104550000E94D37B70933D0260933C0221E0672B65
:1045600009F020E02093A90680E50E94705288237C
:1045700059F020913C0230913D02232B11F00E9412
:104580002E528093A906EAC41111E8C4E7E9FAE1C2
:1045900084918F010F5F1F4F882321F00E944353A6
:1045A000F801F6CF8091A906811103C066E472E09C
:1045B00002C063E472E08CE395E00E94D749609109
:1045C0003C0270913D028BE295E00E94BE49E7E219
:1045D000F5E084918F010F5F1F4F882309F4BEC45B
:1045E0000E944353F801F5CF85E40E94B752882317
:1045F00021F00E940D527B0102C0E12CF12C83E4DA
:104600000E94B752882331F00E940D52A4966FAFDA
:10461000A49704C0B5E0A496BFAFA49785E50E9417
:10462000B752882319F00E942E5203C085E50E94DC
:104630007052E0968FAFE097F7FC07C0812C912C69
:10464000F6E1AF2EF3E4BF2E06C0812C912CECE8EE
:10465000AE2EE2E4BE2E83E50E94B752882321F0FD
:104660000E943D524B015C01E114F10411F41092DF
:104670004F030E9406372B013C01EE2069F0EDEF5D
:10468000F6E084918F010F5F1F4F882309F466C401
:104690000E944353F801F5CFC501B4010E94D37BBA
:1046A000072E000C880B990B0E9494766AA77EA7B0
:1046B0008AAB9EAB60913602709137026F507109E0
:1046C000072E000C880B990B0E9494769B01AC017D
:1046D0006AA57EA58AA99EA90E94B57C18166CF4CD
:1046E000EEEBF6E084918F010F5F1F4F882309F4F2
:1046F00035C40E944353F801F5CFE9EEF6E084910A
:104700007F012FEFE21AF20A882321F00E9443531F
:10471000F701F5CFD301C201805E914BAF4FBF4F80
:10472000EC968CAF9DAFAEAFBFAFEC970E94993DBA
:1047300085E280934D0381E080931202AB964CAEEC
:104740005DAE6EAE7FAEAB97E4964CAE5DAE6EAE38
:104750007FAEE497A7961FAEA797E8961CAE1DAE56
:104760001EAE1FAEE8972B961FAE2B9790E49EAF20
:10477000ACE12396AFAF2397B6E42F96BFAF2F9748
:1047800027961FAE279763961FAE639767961FAE57
:1047900067976B961FAE6B97A3961CAE1DAE1EAEB1
:1047A0001FAEA3976F961CAE1DAE1EAE1FAE6F97C9
:1047B000C12CD12C760125E230E040E050E02EA360
:1047C0003FA348A759A775E2872E912CA12CB12CA5
:1047D000AF961CAE1DAE1EAE1FAEAF9731E0A696D3
:1047E0003FAFA6971BAE1AAE10E0212C312C00E093
:1047F000A4964FADA497042E000C550BA5965FAF61
:104800004EAFA59780911202882309F4F1C00E944F
:1048100006376AA37BA38CA39DA380914C038823B6
:1048200009F4CAC00E94CD3D1091AA062090AB06A3
:104830003090AC060091AD06212F322D432D502F24
:1048400027966FAD279763967FAD639767968FAD79
:1048500067976B969FAD6B970E948E7687FF0CC013
:1048600027961FAF279763962FAE639767963FAE45
:1048700067976B960FAF6B97212F322D432D502FDB
:104880002B966FAD2B977EAD23968FAD23972F96EA
:104890009FAD2F970E94B57C181654F42B961FAF2E
:1048A0002B972EAE23963FAE23972F960FAF2F97C1
:1048B000A6965FADA6972AA53EA54AA9552309F459
:1048C0005CC05EA9612F722D832D902F0E94B57C54
:1048D00018160CF071C08AA19BA1ACA1BDA18419CE
:1048E0009509A609B709C258DF4F88839983AA831F
:1048F000BB83CE57D04088589341A109B109B7FD79
:104900005BC0D501C4012EA13FA148A559A5821BBA
:10491000930BA40BB50BB595A795979587958093A9
:104920004D03C258DF4F88819981AA81BB81CE5740
:10493000D040AF968CAF9DAFAEAFBFAFAF979AA54B
:1049400027969FAF2797AEA56396AFAF6397BAA997
:104950006796BFAF6797EEA96B96EFAF6B972AA1EB
:104960003BA14CA15DA1AB962CAF3DAF4EAF5FAF6D
:10497000AB97A6961FAEA6971FC05EA9612F722D9A
:10498000832D902F0E948E7687FF16C08AA19BA14F
:10499000ACA1BDA1AB962CAD3DAD4EAD5FADAB971F
:1049A000821B930BA40BB50BAC01BD0148585341BE
:1049B0006109710977FF91C520E030E040EA51E4D8
:1049C0006AA57EA58AA99EA90E948F7A9B01AC0147
:1049D000612F722D832D902F0E94B57C18167CF4C8
:1049E000EAE4F6E084918F010F5F1F4F811103C04D
:1049F0000E94993DB3C20E944353F801F3CF8AA1AC
:104A00009BA1ACA1BDA1E4962CAD3DAD4EAD5FAD7B
:104A1000E497821B930BA40BB50BB7FD90C00E94CB
:104A2000293A8AE00E9443538AA19BA1ACA1BDA16F
:104A30008053984FAF4FBF4FE4968CAF9DAFAEAF52
:104A4000BFAFE497A7969FADA79791115DC0E89679
:104A50002CAD3DAD4EAD5FADE897612F722D832D2E
:104A6000902F0E94B57C1816D4F520E030E040E08D
:104A700050E4612F722D832D902F0E948F7AE8963B
:104A80006CAF7DAF8EAF9FAFE8972AA13BA14CA141
:104A90005DA1205E314B4F4F5F4FEC962CAF3DAF89
:104AA0004EAF5FAFEC9720E030E040EC50E46AA5F9
:104AB0007EA58AA99EA90E948E7A9B01AC0181E005
:104AC000A7968FAFA797612F722D832D902F0E94ED
:104AD000B57C1816A4F1A7961FAEA79730C08AA17F
:104AE0009BA1ACA1BDA1EC962CAD3DAD4EAD5FAD93
:104AF000EC97821B930BA40BB50BB7FD20C049E2CA
:104B000056E06BE376E018C020E030E040EA51E484
:104B10006AA57EA58AA99EA90E948E7A9B01AC01F6
:104B2000612F722D832D902F0E948E7687FF07C0F4
:104B300046E056E069E176E080E00E94E2698AA101
:104B40009BA1ACA1BDA1880F991FAA1FBB1FAB964B
:104B50002CAD3DAD4EAD5FADAB97821B930BA40B5F
:104B6000B50B84199509A609B70981389F44A2415C
:104B7000B10568F0E8EEF5E084918F010F5F1F4FFB
:104B8000882309F435CF0E944353F801F5CF4AAD8D
:104B90005BADA5968EAD9FADA597841795070CF0DC
:104BA00031CEEBE8F5E084918F010F5F1F4F882332
:104BB00021F00E944353F801F6CFB701A60187E721
:104BC00095E00E94A1498AE00E9443536F964CAD44
:104BD0005DAD6EAD7FAD6F9783E695E00E94A14914
:104BE0008AE00E944353A3964CAD5DAD6EAD7FADA0
:104BF000A3978FE495E00E94A1498AE00E94435365
:104C0000E0969FADE097992309F4A8C1C092FC0CEF
:104C1000D092FD0CE092FE0CF092FF0C2CEA35ECE9
:104C200047E25EE36F966CAD7DAD8EAD9FAD6F9745
:104C30000E94F3766093F80C7093F90C8093FA0C51
:104C40009093FB0C2CEA35EC47E25EE3A3966CAD47
:104C50007DAD8EAD9FADA3970E946B7B6093000DE1
:104C60007093010D8093020D9093030D77C1849191
:104C70008F010F5F1F4F882321F00E944353F801DB
:104C8000F6CFE7E2F7E084918F010F5F1F4F882393
:104C900009F464C10E944353F801F5CF0E94C74A4A
:104CA0005DC1E6EFFCE184918F010F5F1F4F882308
:104CB00021F00E944353F801F6CFE6E3F7E0849138
:104CC0008F010F5F1F4F882309F448C10E9443538F
:104CD000F801F5CF0E94C42F80E0CFD53FC10E94DC
:104CE000C42F3CC183E50E947052882321F00E94AA
:104CF0002E5291E08927C1D531C189E40E94B75273
:104D0000882321F00E941D52B82E01C0B12C8FE3E0
:104D1000882E82E0982E11E000E0D4018D914D01A3
:104D20000E94B752882379F10E940D526B017C01D9
:104D30006115710541F1023081F00330A1F00130BD
:104D400031F0B1E0BB15F0F08DE99EE019C0E1E073
:104D5000EB15C0F084E29EE013C0F1E0FB1590F08B
:104D60008BEA9DE00DC08AE893E00E944D558111C9
:104D7000F5C080914F03811105C0B60182E39DE02B
:104D80000E94D86C10E00F5F043039F6112309F44B
:104D9000E5C060E08DE99EE00E940A3261E084E2B5
:104DA0009EE00E940A3262E08BEA9DE00E940A3295
:104DB00066E082E39DE00E940A32D0C088E50E944E
:104DC0007052D82E89E50E947052E82E8AE50E9422
:104DD0007052F82E85E40E947052082FD11007C03F
:104DE000E11005C0F11003C011E0182701C010E068
:104DF00088E50E94B752882309F4FDC40E941D5221
:104E0000112331F01092A20E80E00E94563906C0A4
:104E10008130C1F3DD2011F08A30A1F389E50E94D1
:104E2000B752882309F4EAC40E941D52112331F0BD
:104E30001092290E81E00E94563906C08130C1F3DC
:104E4000EE2011F08A30A1F38AE50E94B752882340
:104E500009F4D7C40E941D52112331F01092B00DF5
:104E600082E00E94563906C08130C1F3FF2011F064
:104E70008A30A1F385E40E94B752882309F4C4C4A0
:104E80000E941D52112331F01092370D86E00E94CE
:104E9000563964C08823C1F3002309F45FC08A3007
:104EA00009F05CC0F1CF81E080933E0283E50E946F
:104EB000B752882339F00E942E5281114FC00E94B0
:104EC0007B354CC083E50E947052F7CF0E94D367B8
:104ED00045C0F0903C040E94C74AFF2029F1E7E951
:104EE000FAE184918F010F5F1F4F882321F00E9408
:104EF0004353F801F6CF84E50E9443536F2D70E0D1
:104F000080E090E04AE00E94E75480E20E94435330
:104F1000E9E5F7E084918F010F5F1F4F8823F1F0DF
:104F20000E944353F801F6CF10927202E7E9FAE1CA
:104F300084918F010F5F1F4F882321F00E944353FC
:104F4000F801F6CF60E070E087E497E00E94BE4988
:104F50008AE00E94435302C00E94D36710920C0360
:104F60000E945E3560C40E94C3528091BE0C83FDD6
:104F7000A5C0C0903303D0903403E0903503F09087
:104F80003603209114043091150440911604509179
:104F90001704C701B6010E948E76882309F48EC0DB
:104FA0006091AA067091AB068091AC069091AD0617
:104FB0002091A906211129C00E94D37B20913C0297
:104FC00030913D026217730704F5C0921404D09229
:104FD0001504E0921604F0921704E7E9FAE18491CF
:104FE0008F010F5F1F4F882321F00E944353F80168
:104FF000F6CFE8EFF1E084918F010F5F1F4F882318
:1050000021F00E944353F801F6CF80903303909033
:105010003403A0903503B0903603209114043091EE
:1050200015044091160450911704C501B4010E9463
:105030008E7A6B017C0120E030E0A9010E94B57CF2
:1050400087FF04C0F7FAF094F7F8F094E091720249
:1050500024E0E29FF0011124E85CFD4F20813181C2
:1050600042815381C701B6010E94F37620E030E00F
:1050700048E453E40E94B57C181604F580921404A9
:1050800090921504A0921604B0921704E7E9FAE191
:1050900084918F010F5F1F4F882321F00E9443539B
:1050A000F801F6CFE9EDF1E084918F010F5F1F4F1A
:1050B000882321F00E944353F801F6CF609110023B
:1050C00070911102072E000C880B990B0E949476A8
:1050D000209100023091010240910202509103029E
:1050E0000E94F3762AE037ED43E25CE30E94F37618
:1050F0006E8B7F8B888F998FE090720219821A8253
:105100001B821C82AE014F5F5F4F6A018E010A5EF7
:105110001F4F23E333E04FE253E06BE273E087E29B
:1051200093E00E94415780E1E7E2F3E0A8E0B4E0B9
:1051300001900D928A95E1F711CF0E94DF6B0C94DC
:10514000371A0E943D520E94D37B613471050CF0E6
:105150006CC170935503609354030E94053D0E94F7
:105160003D5220E030E040EA50E40E94B57C181641
:1051700014F40E94DF6B81E080931202809172022E
:1051800080934F031EA21FA218A619A62E961CAE2E
:105190001DAE1EAE1FAE2E971AA21EAE2CE3239696
:1051A0002FAF23973CE12F963FAF2F9746E42796EA
:1051B0004FAF2797C12CD12C20E8E22E3FEBF32EE6
:1051C000812C912C54016091540370915503072E4A
:1051D000000C880B990B0E949476162F072F782EBF
:1051E000692E262F372F482F592FB601C7010E944D
:1051F0008E768823D1F02091500330915103409155
:10520000520350915303612F702F872D962D0E94CA
:105210008E76881F8827881F8AA35AAD552349F0A8
:10522000882339F08091120299CE1C2D0D2D7E2CF1
:105230006F2C0E9406376B017C01DC01CB012E969E
:105240002CAD3DAD4EAD5FAD2E97821B930BA40BE5
:10525000B50BB7FD3DC0D701C60188519C4FAF4F7C
:10526000BF4F2E968CAF9DAFAEAFBFAF2E970E94B3
:10527000293AEEE9F2E084912F019FEF491A590A89
:10528000882321F00E944353F201F5CF8114910449
:10529000A104B104B9F0D501C401805F984DAF4FAE
:1052A000BF4FBC01CD016C197D098E099F0928EE05
:1052B00033E040E050E00E94537ACA01B9010E94F5
:1052C000895503C08FE30E9443538AE00E944353F1
:1052D0000E9462320E94063760930D0370930E03A2
:1052E00080930F0390931003A0915003AAA7B0914D
:1052F0005103BEA7E0915203EAABF0915303FEAB1A
:105300009D01AF01612F702F872D962D0E948E7AFF
:105310001B012C0120E030E0A9010E94B57C87FF31
:1053200004C057FA509457F8509481149104A10482
:10533000B10459F420E030E040E85FE3C201B1017C
:105340000E948E7687FF0DC00AC020E030E040E466
:1053500050E4C201B1010E94B57C181614F4460154
:1053600057012AA1222309F444C08EA19FA1A8A518
:10537000B9A5892B8A2B8B2B61F0D701C6012EA1F1
:105380003FA148A559A5821B930BA40BB50BB7FDF4
:1053900030C02AA53EA54AA95EA96EAD23967FAD71
:1053A00023972F968FAD2F9727969FAD27970E9413
:1053B0008E7A20E030E040EC5FE30E948E7687FD3D
:1053C00031CFD701C601805A9541AF4FBF4F8EA351
:1053D0009FA3A8A7B9A79AA59EAFAEA52396AFAFE6
:1053E0002397BAA92F96BFAF2F97EEA92796EFAFB5
:1053F000279780911202882309F414CF8114910415
:10540000A104B10429F4C12ED02EE72CF62CDBCE5A
:10541000F0E1CF1AF7E2DF0AE108F108C818D9086D
:10542000EA08FB08F7FEFECEEECF61E470E091CE15
:105430000E94C74A88E50E947052882331F0179A6B
:105440008091FB038E7F8093FB0389E50E9470525D
:10545000882331F0169A8091FB038D7F8093FB03A4
:105460008AE50E947052882331F0159A8091FB03DF
:105470008B7F8093FB0385E40E947052882309F49C
:105480006DCDDBD76BCD0E94E47168CD0E94C74A19
:10549000BC2C60E08C2D0E9436500F3FBFEF1B07E5
:1054A00059F48C2D0E94DF4F31E020E0892B09F068
:1054B00030E0032F122F05C00130110559F000E034
:1054C00010E08B2D0E94DF4F8017910709F446CD25
:1054D000F9D7F7CF01E010E0F4CF4AAD5BAD452B33
:1054E00009F45FC1AF964CAC5DAC6EAC7FACAF97CE
:1054F000480E591E6A1E7B1EAF962CAD3DAD4EADBB
:105500005FADAF97281B390B4A0B5B0BCA01B90182
:105510002EA13FA148A559A50E94447AA30192015A
:105520000E94677DD501C401820F931FA41FB51F80
:1055300084319105A105B105F4F04C015D01C897D6
:10554000A105B1052CF057E3852E912CA12CB12C8F
:1055500046E284169104A104B104DCF08AE490E0F0
:10556000A0E0B0E088199909AA09BB098EA39FA3FE
:10557000A8A7B9A712C044E1842E912CA12CB12C6C
:1055800024E130E040E050E02EA33FA348A759A714
:1055900004C08EA29FA2A8A6B9A6E6EBF6E084916D
:1055A0009F012F5F3F4F882381F0ED962FAFED973E
:1055B000EE963FAFEE970E944353ED962FADED97D9
:1055C000EE963FADEE97F901EACFC501B4010E9416
:1055D0008955E1EBF6E084919F012F5F3F4F8823CF
:1055E00081F0ED962FAFED97EE963FAFEE970E94CC
:1055F0004353ED962FADED97EE963FADEE97F90143
:10560000EACF6EA17FA188A599A50E9489552B9606
:105610004FAD2B975EAD23966FAD23972F967FAD41
:105620002F978AEA96E00E94A14927964FAD2797C7
:1056300063965FAD639767966FAD67976B967FAD27
:105640006B9783EA96E00E94A1494AAD5BAD433077
:1056500051050CF4A6C06EA17FA188A599A50E9452
:10566000947620E030E040E850E40E94F3766B014D
:105670007C012B962FAD2B973EAD23964FAD2397F4
:105680002F965FAD2F9727966FAD279763967FADC7
:10569000639767968FAD67976B969FAD6B970E94E8
:1056A0008E7A2BED3FE049E450E40E94F37620E04F
:1056B00030E040E05FE30E94F3769B01AC01C7015C
:1056C000B6010E946B7B6B017C01C301B2010E9499
:1056D00094762FE632E143E85AE30E94F3762B01F9
:1056E0003C01B701A6018DE996E00E94A149B301F2
:1056F000A20187E996E00E94A1492AE939E949E136
:105700005FE3C701B6010E94F3766B017C019B0148
:10571000AC010E948F7AA30192010E946B7B6F966D
:105720006CAF7DAF8EAF9FAF6F97A3019201C701A2
:10573000B6010E94F37620E030E040E05EE30E9494
:10574000F376A3966CAF7DAF8EAF9FAFA397E7E8DC
:10575000F6E084913F015FEF651A750A882321F016
:105760000E944353F301F5CFB701A60181E896E00B
:105770000E94A1496F964CAD5DAD6EAD7FAD6F9748
:105780008BE796E00E94A149A3964CAD5DAD6EAD4E
:105790007FADA39785E796E00E94A1498AE00E9429
:1057A00043538EA19FA1A8A5B9A5880D991DAA1D37
:1057B000BB1DB595A7959795879580934D038AADA9
:1057C0009BAD01969BAF8AAF9AA52B969FAF2B9767
:1057D000AEA5AEAFBAA92396BFAF2397EEA92F9679
:1057E000EFAF2F974AA05BA06CA07DA0F1E0A6963A
:1057F000FFAFA697E1C8112351F004CB112351F05C
:1058000017CB112351F02ACB112351F03DCBD110EE
:10581000F9CA04CBE1100CCB17CBF1101FCB2ACB6C
:10582000011132CB9BCBCF57DF4F0FB6F894DEBFC1
:105830000FBECDBFDF91CF911F910F91FF90EF90E1
:10584000DF90CF90BF90AF909F908F907F906F90A0
:105850005F904F903F902F900895CF93DF93ECEDA2
:10586000F8E08491EF012196882321F00E944353B0
:10587000FE01F7CFDF91CF9108950F931F93CF9340
:10588000C82F882319F0EAEFFAE00CC0E7E9FAE143
:1058900084918F010F5F1F4F8823A9F30E94435308
:1058A000F801F6CF84918F010F5F1F4F882321F0FD
:1058B0000E944353F801F6CFE3EEF8E084918F01A4
:1058C0000F5F1F4F882321F00E944353F801F6CF4A
:1058D0008AE00E9443538AE00E944353C1112CC0C6
:1058E000E7E9FAE184918F010F5F1F4F882321F0D0
:1058F0000E944353F801F6CFE7EEFAE084918F015E
:105900000F5F1F4F882321F00E944353F801F6CF09
:105910008091C703882321F08AE00E9443533AC054
:10592000ECEDFAE084918F010F5F1F4F882391F116
:105930000E944353F801F6CF4091CC035091CD0320
:105940006091CE037091CF0383ED9AE00E94A1494C
:105950008AE00E9443538091C703811127C0CC2362
:1059600019F0E8ECFAE00CC0E7E9FAE184918F0164
:105970000F5F1F4F8823A9F30E944353F801F6CF0E
:1059800084918F010F5F1F4F882381F00E94435342
:10599000F801F6CFE7E9FAE184918F010F5F1F4F1D
:1059A000882351F20E944353F801F6CFC11124C05D
:1059B000E7E9FAE184918F010F5F1F4F882321F0FF
:1059C0000E944353F801F6CFE7EBFAE084918F0190
:1059D0000F5F1F4F882321F00E944353F801F6CF39
:1059E000E7E9FAE184918F010F5F1F4F882321F0CF
:1059F0000E944353F801F6CF4091BF0C5091C00C68
:105A00006091C10C7091C20C8FEA9AE00E94A1498A
:105A10004091C30C5091C40C6091C50C7091C60CA0
:105A20008CEA9AE00E94A1494091C70C5091C80CA1
:105A30006091C90C7091CA0C89EA9AE00E94A14950
:105A40004091CB0C5091CC0C6091CD0C7091CE0C50
:105A500086EA9AE00E94A1498AE00E944353C1115C
:105A600024C0E7E9FAE184918F010F5F1F4F88237B
:105A700021F00E944353F801F6CFE8E8FAE0849160
:105A80008F010F5F1F4F882321F00E944353F801BD
:105A9000F6CFE7E9FAE184918F010F5F1F4F88236A
:105AA00021F00E944353F801F6CF409179065091BE
:105AB0007A0660917B0670917C068FE79AE00E94DF
:105AC000A14940917D0650917E0660917F067091BC
:105AD00080068CE79AE00E94A1494091810650918E
